:020000040800F2
:10000000001000203D3100088D3100088D310008BE
:1000100000000000000000000000000000000000E0
:100020000000000000000000000000008D3100080A
:1000300000000000000000008D310008C50D000820
:100040008D310008000000008D3100088D3100085E
:100050008D310008350F0008690F00089D0F00085A
:10006000000000007D0E0008990E0008C50E000873
:100070008D310008C90E0008E90E000800000000DC
:10008000F10E00080000000000000000110F000841
:1000900000000000130F0008150F00088D31000844
:1000A000000000008D31000800000000190F00085A
:1000B0000000000000000000000000000000000040
:1000C00010B5064C2378002B07D1054B002B02D02E
:1000D000044800E000BF0123237010BD640000202D
:1000E00000000000E03A0008044B10B5002B03D0DC
:1000F0000349044800E000BF10BDC04600000000F6
:1001000068000020E03A00080023C25C0133002AA6
:10011000FBD1581E7047000003B4714649084000E7
:100120004900095A49008E4403BC70470022430825
:100130008B4274D303098B425FD3030A8B4244D3AF
:10014000030B8B4228D3030C8B420DD3FF220902F1
:1001500012BA030C8B4202D31212090265D0030BB0
:100160008B4219D300E0090AC30B8B4201D3CB03A6
:10017000C01A5241830B8B4201D38B03C01A5241E8
:10018000430B8B4201D34B03C01A5241030B8B42EA
:1001900001D30B03C01A5241C30A8B4201D3CB02D5
:1001A000C01A5241830A8B4201D38B02C01A5241BA
:1001B000430A8B4201D34B02C01A5241030A8B42BD
:1001C00001D30B02C01A5241CDD2C3098B4201D3D5
:1001D000CB01C01A524183098B4201D38B01C01A53
:1001E000524143098B4201D34B01C01A52410309CA
:1001F0008B4201D30B01C01A5241C3088B4201D379
:10020000CB00C01A524183088B4201D38B00C01A25
:10021000524143088B4201D34B00C01A5241411A4C
:1002200000D20146524110467047FFE701B5002059
:1002300000F0F0F802BDC0460029F7D076E770471D
:1002400003460B437FD4002243088B4274D3030937
:100250008B425FD3030A8B4244D3030B8B4228D3D8
:10026000030C8B420DD3FF22090212BA030C8B42FE
:1002700002D31212090265D0030B8B4219D300E09E
:10028000090AC30B8B4201D3CB03C01A5241830B23
:100290008B4201D38B03C01A5241430B8B4201D3D3
:1002A0004B03C01A5241030B8B4201D30B03C01AFC
:1002B0005241C30A8B4201D3CB02C01A5241830A76
:1002C0008B4201D38B02C01A5241430A8B4201D3A5
:1002D0004B02C01A5241030A8B4201D30B02C01ACF
:1002E0005241CDD2C3098B4201D3CB01C01A524136
:1002F00083098B4201D38B01C01A524143098B42BF
:1003000001D34B01C01A524103098B4201D30B01A7
:10031000C01A5241C3088B4201D3CB00C01A5241CC
:1003200083088B4201D38B00C01A524143088B4291
:1003300001D34B00C01A5241411A00D2014652412A
:10034000104670475DE0CA0F00D04942031000D349
:100350004042534000229C4603098B422DD3030A9E
:100360008B4212D3FC22890112BA030A8B420CD3AE
:10037000890192118B4208D3890192118B4204D3D7
:1003800089013AD0921100E08909C3098B4201D357
:10039000CB01C01A524183098B4201D38B01C01A91
:1003A000524143098B4201D34B01C01A5241030908
:1003B0008B4201D30B01C01A5241C3088B4201D3B7
:1003C000CB00C01A524183088B4201D38B00C01A64
:1003D0005241D9D243088B4201D34B00C01A52413B
:1003E000411A00D20146634652415B10104601D3C8
:1003F0004042002B00D54942704763465B1000D352
:10040000404201B5002000F005F802BD0029F8D0F7
:1004100016E770477047C046436901334361704730
:10042000883070B50D000400006803689B68984729
:1004300025602B6828001B68984770BD012A03D0EF
:10044000022A03D0002070470160FBE70B680360BD
:10045000F8E7012A03D0022A03D000207047016088
:10046000FBE70B680360F8E7012A03D0022A03D0F8
:10047000002070470160FBE70B680360F8E7012A82
:1004800003D0022A03D0002070470160FBE70B680D
:100490000360F8E7012A03D0022A03D00020704746
:1004A0000160FBE70B680360F8E7012A03D0022A2A
:1004B00003D0002070470160FBE70B680360F8E79A
:1004C000006810B501006D31FF31FFF7A9FF10BDC5
:1004D000012A03D0022A03D0002070470160FBE705
:1004E0000B680360F8E7006810B50100F031FFF712
:1004F00097FF10BD012A03D0022A03D000207047C5
:100500000160FBE70B680360F8E78722036892004D
:1005100010B5991804001800FFF782FFC62223685F
:1005200092009B1801225A6009329A6000221A60D8
:1005300010BD012A03D0022A03D0002070470160B9
:10054000FBE70B680360F8E77047012A03D0022A33
:1005500003D0002070470160FBE70B680360F8E7F9
:10056000006810B501006D31FF31FFF759FF10BD74
:10057000012A03D0022A03D0002070470160FBE764
:100580000B680360F8E70B7810B5002B05D0006806
:1005900001006D31FF31FFF743FF10BD012A03D089
:1005A000022A03D0002070470160FBE70B6803605C
:1005B000F8E77047012A03D0022A03D000207047D1
:1005C0000160FBE70B680360F8E7012A03D0022A09
:1005D00003D0002070470160FBE70B680360F8E779
:1005E000012A03D0022A03D0002070470160FBE7F4
:1005F0000B680360F8E7012A03D0022A03D0002029
:1006000070470160FBE70B680360F8E77047012A59
:1006100003D0022A03D0002070470160FBE70B687B
:100620000360F8E77047012A03D0022A03D00020B4
:1006300070470160FBE70B680360F8E77047012A29
:1006400003D0022A03D0002070470160FBE70B684B
:100650000360F8E7012A03D0022A03D00020704784
:100660000160FBE70B680360F8E7012A03D0022A68
:1006700003D0002070470160FBE70B680360F8E7D8
:10068000012A03D0022A03D0002070470160FBE753
:100690000B680360F8E7012A03D0022A03D0002088
:1006A00070470160FBE70B680360F8E7012A03D09D
:1006B000022A03D0002070470160FBE70B6803604B
:1006C000F8E70B1A9B10002B14DD0278002A03D0E8
:1006D0004278002A01D1013070478278002A01D186
:1006E0000230F9E7C278002A01D10330F4E7043080
:1006F000013BE8E70B1A022B0CD0032B06D0012B91
:1007000002D10378002BE7D00800E5E70378002B3F
:10071000E2D001300378002BDED00130F1E70B1A74
:100720009B10002B14DD0278002A03D14278002AA6
:1007300001D0013070478278002A01D00230F9E7F9
:10074000C278002A01D00330F4E70430013BE8E727
:100750000B1A022B0CD0032B06D0012B02D10378ED
:10076000002BE7D10800E5E70378002BE2D1013048
:100770000378002BDED10130F1E710B50400002C26
:1007800005D0236820001B6898476468F7E710BD10
:10079000026810B513000C24FC331B685C4311196C
:1007A0000800A832A830121903889268934203D235
:1007B00001339BB2038010BDAC310B68F9E70268CE
:1007C0000C211300FC331B6810B55943541820004A
:1007D000AC34A83003882468A34203D9013B9BB200
:1007E000038010BDA83252189368F8E7302210B584
:1007F0000300007A5143114A002807D0906818601E
:10080000814201D3081A5860002018721C68A14266
:1008100008D892680120A41AA14202D8012200201F
:100820001A7210BD916801208C42FAD85168926802
:100830008A1A59688A42F1D2F3E7C04610E000E014
:10084000F8B505000E0010000A211700FFF76EFC36
:100850000A2184B23800FFF7EFFC240189B230008E
:100860000C430A21FFF762FC80B2000304430A2113
:100870003000FFF7E1FC88B2000204430A2128009F
:10088000FFF754FC000504430A212800FFF7D4FCBD
:1008900008042043F8BDF8B505000E0010000A2139
:1008A00017005C03FFF7C8FC89B238000C430A212B
:1008B000FFF73CFC80B2000104430A213000FFF73F
:1008C00035FC80B2000304430A213000FFF7B4FC7A
:1008D00088B2000204430A212800FFF727FC000524
:1008E00004430A212800FFF7A7FC08042043F8BDB1
:1008F00073B5046800212300FC331A680132052A0D
:100900000BDC1A6020005A68FF304172012A09D1BD
:100910009A68042A03D1596073BD1960F2E7033A5B
:100920009A60F9E7002AF7D19A680A2A42D1093A6F
:100930005A606B464272D91D231DDB6F0A70002B73
:1009400001D102F024FC230020000833DB6F783053
:100950009847230088331B681D68CA236E1DF377F0
:10096000773BF377EA682D331343EB60EB685B0664
:10097000FCD52300E4331A880C3B19880C3B1888FB
:10098000FFF75EFF230022002100F033C032B431B4
:10099000A8341B881288098828602088FFF77BFF0D
:1009A00080226860EB689343EB60FE23F3779A3B09
:1009B000F377B1E70332B3E703008C3310B50400DB
:1009C00018683221421C1A60FFF736FC002904D156
:1009D0008834206803685B68984710BD10B50A1A10
:1009E00002D0202102F01EFC10BD000003691B068E
:1009F00003D5024B4360024B4360704723016745B8
:100A0000AB89EFCD0122036993430361022302699D
:100A10001343036180239B02C9184023890241616B
:100A20000269134303617047F8B505003D350400C2
:100A300046692878C0B205281AD8FFF76DFB060072
:100A40001A0039007300BC00EE0022004032137817
:100A5000E118F05C097E884200D0FAE00133DBB295
:100A6000012B00D90023137001223C349A432270D9
:100A7000F8BD2069C368DB07FAD403691B06F7D504
:100A8000FFF7B4FF022123691A698A431A61012220
:100A9000186902431A61230040331A78013BB05CA5
:100AA00018701B78A06B1B02134303802970DFE7CB
:100AB0002369DA689206DBD52022D9680A43DA6016
:100AC000802219690A431A612100230040313F3313
:100AD0001A780B78E3181A76A36B981CE369A06365
:100AE000DA00A218D66A7700966A2200F6193E321A
:100AF000B04203D01378DBB22B70B9E70126E018BF
:100B000001309B19C677B34200D90023E361DB00B3
:100B1000E3189B6AA36300230B7001332B7004332B
:100B20001370A5E72069C368DB07A1D403691B061E
:100B30009ED52300210020331E002231CA1A9210B4
:100B4000002A20DD1F78002F03D15F78002F0DD001
:100B50000133994221D09B1B6362FFF747FF636A11
:100B60003D4AD15CFFF74EFF0423C5E79F78002F75
:100B700001D00233EDE7DF78002F01D00333E8E73F
:100B80000433013ADCE7CA1A022A0DD0032A07D03F
:100B9000012A0ED11A78002ADBD13E342378AAE745
:100BA0001A78002AD5D101331A78002AD1D101331D
:100BB000F0E70B00CDE72369DA68920600D457E727
:100BC0002022D968254E0A43DA60802219690A4337
:100BD0001A61616ACB00E3189A6ADB6A5B00D3187A
:100BE0001000934217D00232971E3F88B742F7D0C9
:100BF0001B1A260062182000591E8B410132223632
:100C0000D37720303100FFF78AFD0323864200D0DE
:100C100072E7002370E71800EAE7220040321378F9
:100C20000133DBB2012B11D9002313702600200001
:100C3000223631002030FFF772FD0323864200D1B7
:100C400000232B7000233E34237011E71370002B18
:100C5000ECD0012350E7C0460E3D0008FFFF000026
:100C6000012306C8103293408B617047036810B5AA
:100C700004009869FFF7F4FFC8216068FFF7B6FD2C
:100C80000028F9D123689B6959681A6801238B40B1
:100C90009361C8216068FFF7A9FD0028F9D110BD54
:100CA00070B504000D000368ED001869FFF7D8FF68
:100CB00023686068DA699B6AEB589361FFF7D6FF97
:100CC00023686068DA699B6A5D196B689361FFF756
:100CD000CDFF6421A068FFF789FD0028F9D170BD20
:100CE00070B5437B0400012B23D0002B02D0022BD4
:100CF0002CD070BD01254069FFF7B2FF29002369A0
:100D0000606B1A685B68266A994043199161636356
:100D10005021FFF791FA124B8900CB58626AF35CBD
:100D2000DB00D3181968E2695B689161E36265735F
:100D3000DFE78069416802688B409361FFF790FFAD
:100D4000E369E26A9A6102236373D2E7012380694F
:100D5000416802688B409361FFF782FF0023F3E74D
:100D6000C43B000803684268012090401B6918409A
:100D7000431E9841C0B2704710B50468002C05D0DE
:100D8000236820001B689847A468F7E710BD10B5DA
:100D900083680400002B02D0032201009847200042
:100DA00010BD10B504000830FFF7E6FF2069616947
:100DB000431C2361FFF740FA002902D12000FFF70E
:100DC000DBFF10BD10B50248FFF7EBFF10BDC046BA
:100DD00040020020416902690023914201D343612E
:100DE0000133180070470000037B002B0DD0002357
:100DF000426803738368002A0ED0002B08D09360EA
:100E000083685A6000234360836070470B60F8E793
:100E1000044993604A60F5E70249002BF6D10B6064
:100E20004B60EFE740020020002310B54361FFF75D
:100E3000DBFF10BD037B002B0CD101330373064B8A
:100E40005A684260002A00D090601A685860002AF0
:100E500000D118607047C04640020020012901D12E
:100E600042637047022901D18263FAE7032901D165
:100E7000C263F6E70429F4D10264F2E7044B10B52B
:100E80001868FFF77AFC0122024B5A6010BDC04679
:100E90007001002000000240074B10B51868FFF7F2
:100EA0006CFC1023054C6360054B1868FFF765FC6C
:100EB00080235B00636010BD7801002000000240C9
:100EC00080010020FEE70000054B10B51868FFF711
:100ED00054FC0121034A138A8B43138210BDC04680
:100EE00028020020002C014010B5FFF7EDFF10BDD7
:100EF000054B10B51868FFF740FC0121034A138A1F
:100F00008B43138210BDC046300200200004004015
:100F1000FEE7FEE7FEE70000044B10B51868FFF798
:100F20002CFC0122024B52421A6210BD38020020F2
:100F30000038014010B5094C6369DB0703D5084B45
:100F40001868FFF71AFC63699B0703D5054B1868FF
:100F5000FFF713FC0323636110BDC046000401408A
:100F600098010020A001002010B5094C63695B07BF
:100F700003D5084B1868FFF700FC63691B0703D50E
:100F8000054B1868FFF7F9FB0C23636110BDC046E1
:100F900000040140D8010020E001002010B52C4CD5
:100FA0006369DB0603D52B4B1868FFF7E6FB636923
:100FB0009B0603D5284B1868FFF7DFFB63695B06C8
:100FC00003D5264B1868FFF7D8FB63691B0603D5CA
:100FD000234B1868FFF7D1FB6369DB0503D5214B71
:100FE0001868FFF7CAFB63699B0503D51E4B186899
:100FF000FFF7C3FB63695B0503D51C4B1868FFF75C
:10100000BCFB63691B0503D5194B1868FFF7B5FBDB
:101010006369DB0403D5174B1868FFF7AEFB636900
:101020009B0403D5144B1868FFF7A7FB63695B04A7
:1010300003D5124B1868FFF7A0FB63691B0403D5A7
:101040000F4B1868FFF799FB0E4B636110BDC0464C
:1010500000040140E8010020F0010020F801002018
:10106000000200200802002010020020A801002039
:10107000B0010020B8010020C0010020C8010020FC
:10108000D0010020F0FF0000010010B5593104002C
:101090000930FFF7A3FC0023236010BD10B50368DF
:1010A00004005A1CC3180260597200685021FFF7EF
:1010B000C3F82000216010BD10B5142104000068A1
:1010C000FFF7BAF8002903D120312000FFF7E6FF2F
:1010D00014212068FFF7B0F8002901D02021F4E79F
:1010E000200010BD70B5040000200D00814202D028
:1010F0000800FFF709F820606560200070BD70B53A
:1011000004000D0000681421FFF710F803001420FC
:10111000584350214019FFF78FF82000216070BD1F
:1011200070B505682A00AC321368002B1AD02E0067
:101130001424A836013B13603368686863430F21A9
:101140000360FFF7DCFF2021FFF7A8FF3368686822
:10115000013B5C4333600F210460FFF7D0FF7E2129
:10116000FFF79CFF70BD70B505682A00AC321368AC
:10117000012B1AD02E001424A836013313603368D3
:10118000686863430F210360FFF7B9FF2021FFF771
:1011900085FF3368686801335C4333600F21046066
:1011A000FFF7ADFF7E21FFF779FF70BD70B5060038
:1011B000437A04000C36002B05D00023C161437232
:1011C0003000FFF737FE3000FFF704FE012500284E
:1011D00004D03000FFF728FE65720025280070BD9E
:1011E000F0B500278FB005AD04000C22390009A826
:1011F00005976F6002F016F801236B722B726B4635
:10120000384EEF61EE602F620094019502940393D3
:10121000049564212800FFF7C9FF0028F9D120694F
:10122000FFF71EFD6069FFF71BFDA36968461A689A
:10123000596801238B409361A26AE369D2699A617C
:10124000FFF714FD05212800FFF7B0FF0028F9D1B2
:10125000A26AE369D26968469A61FFF707FD6421D3
:101260002800FFF7C3FA0028F9D1A26AE369D2691E
:1012700068469A61FFF7FAFC32212800FFF7B6FAB8
:101280000028F9D1A26AE369526968469A61FFF7BA
:10129000EDFC32212800FFF7A9FA0028F9D1282116
:1012A00002A8FFF7FDFC0C2102A8FFF7F9FC0621BC
:1012B00002A8FFF7F5FC012102A8FFF7F1FC80214D
:1012C00002A8FFF7EDFC01212800FFF76FFF0028BF
:1012D000F9D101233034237008A8EE60FFF784FDB4
:1012E0000FB0F0BD003B00088022164B5202196877
:1012F0000A431A601A689203FCD5F0215A688A439F
:101300005A605A6810490A4003215A605A688A4351
:10131000110002220A435A605A680C491140802287
:1013200052030A435A608022596852020A435A60A3
:101330008022196852040A431A601A689201FCD587
:101340007047C04600100240FFF8FFFFFFFFC3FFD9
:10135000F8B50123354E364A3168364C194232D140
:10136000354D36492F681F4204D1354F2B600F6031
:1013700004274F6080235569DB022B4353610B68C0
:10138000304D1F68AC462F408025AD003D431D60A9
:101390001F6A2D4D3D4080277F022F431F62674605
:1013A000DD683D40DD60294B616023600123002141
:1013B0005B4223810233A372A381E08121826461B5
:1013C0002183E46133600223D1690B437021D3612F
:1013D00023689A698A43110060220A439A610822AD
:1013E00099690A439A61802219680A431A600122A6
:1013F00019680A431A60B723228A9B009A4213D0C5
:101400002382134A636913491A811A68DD69D1621C
:10141000FA212A89188B89005043FEF711FFA97A17
:1014200002002868FFF71AFD2000F8BD34010020F3
:101430000010024038010020580100205C0100200B
:1014400000040048FFFCFFFFFFFFF0FF0004004026
:101450001280FFFF1280000010B504005030FFF72B
:1014600096FC20004030FFF792FC20003030FFF760
:101470008EFC20002030FFF78AFC20001030FFF7A0
:1014800086FC2000FFF783FC200010BD70B515001E
:101490000C1A04D001002200280001F0B0FE281927
:1014A00070BD0300F0B5093387B0019303681600DF
:1014B0000293029A019B05009A18037A0C00002BF4
:1014C00027D013291CD814277F1A7F08D7197B1817
:1014D000100039000393FFF781FA31193A00300008
:1014E000FFF7D4FF0299019B143159180398FFF7B5
:1014F00075FA286814305021FEF79EFE296016E028
:10150000080014384008301801001431FFF7BEFFFE
:10151000EFE75021029BC91A33190293A1420BD95C
:1015200019003000FFF7B2FF2B681C192C60002354
:1015300028002B7207B0F0BD270071183000FFF7AC
:10154000A5FF2B68503FFF18E41B36193000019AA5
:101550005036502F04D93100FFF798FF503FF5E780
:101560000299FFF793FF2B68F818C4E730B5050020
:1015700089B00A0005A8104901F060FF05A901A87B
:10158000FFF7B0FD6C68019B9C4207D9E41A013C4F
:1015900004D320212800FFF781FDF8E705A903A85F
:1015A000FFF7A0FD0399049A2800FFF77AFF0023B4
:1015B00028006B6009B030BD0B3D000870B5040019
:1015C0000D00092908DC0021FFF7D0FF06000A21E1
:1015D0002800FEF71BFF3000FFF7C8FF200070BD9A
:1015E00073B504008C30FFF7F5FB2300A4331978A2
:1015F00002000800250050401870FC356068142374
:10160000914261D06A6853430360A968FFF777FD90
:101610000C232A685343E318A8331988FFF7CEFF39
:101620006B68002B0AD1AB68042B07D004236068D9
:1016300003602300CC331988FFF7C0FF6B68002BD1
:101640000AD1AB68072B07D007236068036023002B
:10165000D8331988FFF7B2FF6B68002B0AD1AB684B
:101660000A2B07D00A23606803602300E43319883B
:10167000FFF7A4FF6B68002B0AD1AB68042B07D1DE
:101680006068143303602300C0331988FFF796FFA6
:101690006B68012B0AD1AB68072B07D01B2360684E
:1016A00003602300B4331988FFF788FF6B68012BB0
:1016B00009D1AB680A2B06D01E236068A8340360EA
:1016C0002188FFF77BFF73BD6A6853430360A968F5
:1016D000FFF715FD060005496846FFF703FD009971
:1016E000019A3000FFF7DDFE9AE7C046083D00088A
:1016F0000423F7B504000A2540680360A36F1B6844
:1017000019681B688902890F69431B031B0FC918DD
:10171000FFF754FF062367683D4E3B603100684683
:10172000FFF7E0FC019A00993800FFF7BAFE0723A3
:1017300060680360A36F1B6819681B684904490F40
:1017400069431B051B0FC918FFF738FF092367689A
:1017500031003B606846FFF7C5FC019A00993800EC
:10176000FFF79FFE60680560A36F1B6819681B6820
:101770004906490F69431B071B0FC918FFF71EFFD6
:10178000182360680360A36F1B6859685B6889064B
:10179000890F69431B071B0FC918FFF70FFF1A2397
:1017A00067681C4E3B6031006846FFF79BFC019A5E
:1017B00000993800FFF775FE1B2360680360A36F74
:1017C0001B6859685B68C904C90F69431B051B0F77
:1017D000C918FFF7F3FE1D23676831003B606846B8
:1017E000FFF780FC0099019A3800FFF75AFE1E238C
:1017F00060680360A36F1A68536851681B021B0F6F
:101800005D430903090F6918FFF7D8FEF7BDC0460D
:10181000043D0008063D0008002370B583608B6816
:1018200004000D00002B05D002229847EB68E3600E
:10183000AB68A360200070BD002370B583608B6827
:1018400004000D00002B05D002229847EB68E360EE
:10185000AB68A360200070BD70B505000C00FFF7F9
:10186000DBFF2800210010301031FFF7D5FF2800E2
:10187000210020302031FFF7CFFF28002100303039
:101880003031FFF7C9FF2800210040304031FFF719
:10189000D3FF2800210050305031FFF7CDFF280042
:1018A00070BD002370B583608B6804000D00002BB1
:1018B00005D002229847EB68E360AB68A360200084
:1018C00070BD002370B583608B6804000D00002B91
:1018D00005D002229847EB68E360AB68A360200064
:1018E00070BD002370B583608B6804000D00002B71
:1018F00005D002229847EB68E360AB68A360200044
:1019000070BD0000F0B50025274C8022A54402AB35
:101910009D80264B37AC08333793254B9200A3624A
:10192000459346AB1D701223E2626263FF3302AA45
:101930009B181D7089235B009B181D7047AB1D70A1
:1019400003AB636101231B491B485B426560A560D3
:101950002573216323832061E561258465621581F8
:10196000FFF744F841AE736804A85A0033689A1828
:101970009A420ED01978012907D85F7861180F763E
:101980000127197847540233F2E719880B4FB942FF
:10199000F9D1459332689A4212D1E5610836012D9A
:1019A0001FD00125DFE7C046A4F9FFFF104D000856
:1019B000006800080064000800200240FFFF0000EB
:1019C000716849005218934201D100F018FD0A27AE
:1019D00002ABFF18E561390004A8FEF772FEB842B9
:1019E000DCD1E369DA00A218D16A926A4900521880
:1019F000A16B91420CD1CA2202A9D2005218D3186D
:101A0000EB4A9B1801221A700023E361419B459326
:101A10000A2602ABF618310004A8FEF752FE0500B4
:101A2000B04201D000F0F1FC02223DA9606901F052
:101A3000DDFB0023892102AA490052181370F42209
:101A400002AB9B181B78002B15D1E369002B12D039
:101A5000E36AD8485A00419B19009A180B008A4241
:101A600001D000F0DFFC13009B1AF4215A1E9341B1
:101A700002AA52181370F52202AB9B181B78002B98
:101A800016D1E369012B13D0636B439A5B00C948FD
:101A9000D3181100934204D00232971E3F88874228
:101AA000F7D05B1AF5215A1E934102AA52181370FF
:101AB000F62702ABFF1839003FA8FEF730FEB84208
:101AC00005D0122302AAFF339B1803221A70802329
:101AD000226911690B431361B54202D0002302AAA7
:101AE00093802000FFF7A6F90C200022632148AB69
:101AF0005861133018620838D862243098635864EB
:101B00005AA802801A805A609A811A839A841A8687
:101B10005A639A871A6407321A65A74A996010684F
:101B200062391961D9619962D964084204D1A34824
:101B3000A34C4360046011600123A24C626A13430A
:101B40006362636A9B07FCD5236A9C4F1B0446D4DF
:101B50008023E2695B051343E36180239A4A5B00BB
:101B600011680B431360226A984B1A4080239B0034
:101B7000134323628023226A1B0213432362CA2376
:101B80003D686E1DF377773BF377EA682D33134397
:101B9000EB60EB685B06FCD52B698D4A1A40DE23AF
:101BA000DB031343AD222B612B695200DB0BDB03FC
:101BB000134300222B6111001000FEF741FE0023A9
:101BC00028601A0019001800FEF765FE8022686080
:101BD000EB689343EB60FE23F3779A3BF3777D4802
:101BE0000597FFF7B5FB002301217B4A75AF75927E
:101BF0007A4A06907A607A4ABB601068FB603B7450
:101C00007B74FB61FB62FB63FB64FB65754B084205
:101C100004D17548116018600D20586080226169F8
:101C200012030A4362611868704D01680126294059
:101C30000160C2682A400025C2607B6691AB1D70BE
:101C40006B4B02AA9B1876A81D70BD66FE66FFF757
:101C5000F1F8942202AB92009B181D70654B664A06
:101C60009293664B9495939302AB9B181D70644BB3
:101C70009595196899959D95A195A595A995614A00
:101C8000314204D158491E6011600F2151608023F8
:101C90000025012661691B030B436361116893A84A
:101CA0000B689B009B080B60CB689B009B08CB607C
:101CB000AEAB1D70544BAB9202AA9B181D70AC9535
:101CC000AD96FFF7B7F8B12202AB92009B181D70DA
:101CD0004E4B4F4AAF934F4BB195B09302AB9B180D
:101CE0004D4A1D701168B295B695BA95BE95C295CC
:101CF000C6954A4B314204D13B49166019600E210A
:101D000059608022616912030A4362611868444D78
:101D10000168CCAE29400160C2682A40C260C89305
:101D200001230025CA93CBAB1D703E4B02AA9B1822
:101D3000B0A81D70C995FFF77DF806993A4B009140
:101D400005990833019139483949CC9302ABC91838
:101D5000C0187560B5603573356175613576FEF70D
:101D60003DFE0122334B1B68134200D0BAE03249DA
:101D700015000B681340314A04D19020C005106053
:101D800053600D60802361699B020B430321012096
:101D90006361126813688B4303431360D3688B43FA
:101DA000D360274B27491A68024253D14CE0C04602
:101DB000A4FAFFFFFFFF000064010020680100207B
:101DC000002800400010024000700040FFFCFFFFB0
:101DD000FFFF80FFDE030000203B0008403B0008BF
:101DE000280100202C01002000080048FFFFFFF31D
:101DF0003D0200004C3B0008510200006C3B000813
:101E00001C01002020010020B1020000783B0008E6
:101E1000C5020000983B00081001002014010020BA
:101E2000FFFFFFCF250300001C4D00084103000009
:101E300091030000B00000200401002008010020F0
:101E4000F8000020FC0000209022D2050A60022247
:101E500018604A60802362699B021A4362613020E5
:101E60000A6810211568854329431160D1688143B0
:101E7000D1600122F5490868104205D19025F44847
:101E8000ED05056042600A6062690C20134304227C
:101E9000EF4963610B681D6885432A431A60DA685D
:101EA0008243DA60EB4AEC4B08321A60EB4A9961E4
:101EB0001A61EB4A02A95A619022D205DA61E94A15
:101EC000002052181A62E84A58605A62E74A98603D
:101ED0009A621A00303210700122187358735863D6
:101EE000E34B1A600121E34BE34A1868084205D12D
:101EF0009020C00510600320196050608023616944
:101F00009B020B436361C021136840221868884319
:101F100002431A60DA688A43DA60D84BBF3918681E
:101F2000D74A084205D19020C005106004201960EE
:101F30005060802361699B020B43636113688022B8
:101F40001968D048520001400A4301211A60DA683A
:101F50000240DA60CC4BCD4A1868084205D1902087
:101F6000C0051060052019605060802361699B02E4
:101F70000B43802163611368C5481A68C900024099
:101F8000114319600121DA680240DA60C14BC24A8C
:101F90001868084205D19020C0051060062019601D
:101FA0005060802361699B020B4380216361136849
:101FB000BA481A684901024011431960DA68A64C10
:101FC0000240DA602000FFF70BF9237B002B21D1C0
:101FD00001332373B24BDA686260002A00D0946048
:101FE0009A68DC60002A00D19C60022101225961BC
:101FF000AC4B186890431860AB485860002098605C
:102000001C6804302043186018680143196019687F
:102010000A431A60376700278F4B0BA9F36692AB10
:102020007367AFABB36703ABF367009B07A8EC9391
:10203000019BEF97ED93FFAB2433EE939B4B0B96F5
:102040000E939B4B2BAD0D93FFF7E6FB994B13A91A
:102050001693994B0FA815931396FFF7DDFB974B3B
:102060001BA91E93964B17A81D931B96FFF7D4FB35
:10207000944B23A92693944B1FA825932396FFF7EF
:10208000CBFB924B29002E93914B27A82D932B9697
:10209000FFF7D2FB8F4B31AC60938F4B5DA92000D3
:1020A0005F935D96FFF7C8FB07A9F0A8FFF7B4FBA5
:1020B0000FA9F4A8FFF7B0FB17A9F8A8FFF7ACFB2E
:1020C0001FA9FCA8FFF7A8FBFFA827A90430FFF76A
:1020D000B3FBFFA821001430FFF7AEFB2000FEF792
:1020E00056FE5DA8FEF753FE27A8FEF750FE280017
:1020F000FEF74DFE1FA8FEF74AFE23A8FEF747FE97
:1021000017A8FEF744FE1BA8FEF741FE0FA8FEF736
:102110003EFE13A8FEF73BFE07A8FEF738FE0BA80D
:10212000FEF735FEF0A95DA8FFF796FB6B4B3196E5
:10213000E3606B4B21002800A360FFF7B2FBED9B2F
:10214000FFAA0093674B24321360FFAB2833D0AA59
:10215000FFA81A605DA92C30FFF77EFBFFA82900BD
:102160008C30FFF79EFB009AFFAB9C331A6028006F
:10217000FEF70DFE2000FEF70AFE5DA8FFF76CF9E2
:10218000F0A95DA8FFF768FB574B27A92A93574B87
:1021900023A829932796FFF784FB0923544A2B93FE
:1021A0003193544B6A606360534A544B2D96339677
:1021B0006A616361524A534B2A612361FFAA524B01
:1021C000A0321360FFABD0AAA433FFA81A605DA9A8
:1021D000A830FFF741FB4D4802AB23A9C018FFF719
:1021E00060FB4B4B02AA9B182A0003CA03C3494851
:1021F00002AB2DA9C018FFF754FB474B02AA9B184E
:10220000220003CA03C3454802AB33A9C018FFF735
:1022100048FB85239B00F7500433F75033A8FEF7A3
:10222000B6FD2DA8FEF7B3FD23A8FEF7B0FD27A845
:10223000FEF7ADFD5DA8FFF70FF9F0A95DA8FFF768
:102240000BFB374B27A92A936CE0C046EC0000201B
:10225000F0000020284D0008B400002008010020F4
:10226000FC00002041030000103D0008104500085C
:10227000B0000020A4000020A8000020980000204A
:102280009C000020FFFCFFFF8C000020900000203D
:10229000FFF3FFFF8000002084000020FFCFFFFF3E
:1022A0004002002010E000E0BF5D000005250008AE
:1022B0003D0400083D25000853040008952400084B
:1022C00069040008CD2400087F040008C92500081F
:1022D0009504000891250008AB040008C10400081B
:1022E000D1040008A43B0008E7040008F504000836
:1022F000344D00083E4D00080B0500084905000854
:10230000330500084B0500080C3B0008FC040000E6
:102310000C05000014050000240500002C05000039
:1023200061050008454B23A829932796FFF7B9FAC2
:10233000434B3196E360434B21002800A360FFF735
:10234000D0FAED9B404A009387239B00F2503F4810
:10235000D0AA0433F25002AB5DA9C018FFF77CFA93
:102360003B4802AB23A9C018FFF79BFA394802ABE0
:102370002900C018FFF7B5FAA923009A9B00F25074
:102380000833F7500433F750334A0433F7540C3B07
:10239000F250AF22BA2010339200F750B750C83A2B
:1023A000F250C00002ABC018FEF744FDB02301227A
:1023B0009B00F7545833F7500433F250093204337A
:1023C000F2500433F7542800FEF7E1FC2000FEF73A
:1023D000DEFC23A8FEF7DBFC27A8FEF7D8FC5DA8EF
:1023E000FFF73AF83000FEF725FDEE9803681B680A
:1023F0009847F36E30331B78BB421CD1FEE72B00AD
:1024000001222033E254FFF7C9FACA2302AADB00F3
:102410009B18E2699B18114A9B1801221A70052328
:10242000FFF708FB02318F1E3F88874201D1FFF77B
:1024300015FBFFF719FB30BFFDE7C046710500082B
:10244000870500089D050008B83B00084C05000002
:10245000AC050000BC050000003B0008A4FAFFFF2B
:1024600073B56B4604001A0060CC60C20A0030CA23
:1024700030C005CB05C173BD70B505000C00FFF77A
:10248000EFFFAB68A268AA60A360E268EB68EA604D
:10249000E36070BD30B50023040089B008006946D0
:1024A0000293FFF7E9FF236869469C6F04A823683D
:1024B0009D68FFF7F6F904A92000A84704A8FEF7D5
:1024C00066FC6846FEF763FC09B030BD30B50023FA
:1024D000040089B0080069460293FFF7CDFF236826
:1024E00069469C6F04A82368DD68FFF7DAF904A940
:1024F0002000A84704A8FEF74AFC6846FEF747FC00
:1025000009B030BD30B50023040089B00800694629
:102510000293FFF7B1FF236869461C6F04A8236884
:102520009D68FFF7BEF904A92000A84704A8FEF79C
:102530002EFC6846FEF72BFC09B030BD30B50023F9
:10254000040089B0080069460293FFF795FF2368ED
:1025500069465C6F04A823689D68FFF7A2F904A987
:102560002000A84704A8FEF712FC6846FEF70FFCFF
:1025700009B030BD70B505000C00FFF771FFAB6806
:10258000A268AA60A360E268EB68EA60E36070BDDD
:1025900030B50023040089B0080069460293FFF7B4
:1025A000E9FF236869465C6F04A823681D69FFF78B
:1025B00088F904A92000A84704A8FEF7E8FB6846AC
:1025C000FEF7E5FB09B030BD30B50023040089B04B
:1025D000080069460293FFF7CDFF236869461C6F28
:1025E00004A823681D69FFF76CF904A92000A84717
:1025F00004A8FEF7CCFB6846FEF7C9FB09B030BD66
:10260000836810B5002B01D100F0C1FDC368984765
:1026100010BD30B50025040085B06946083002952C
:10262000FFF7EEFF6846FEF7B2FB20006946183060
:102630000295FFF7E5FF6846FEF7A9FB2000694613
:1026400038300295FFF7DCFF6846FEF7A0FB05B0C7
:1026500030BD30B50025040085B0694628300295AC
:10266000FFF7CEFF6846FEF792FB20006946083070
:102670000295FFF7C5FF6846FEF789FB2000694613
:1026800018300295FFF7BCFF6846FEF780FB20007C
:10269000694638300295FFF7B3FF6846FEF777FBCF
:1026A00005B030BD30B50025040085B0694608305E
:1026B0000295FFF7A5FF6846FEF769FB2000694613
:1026C00018300295FFF79CFF6846FEF760FB20007C
:1026D000694628300295FFF793FF6846FEF757FBDF
:1026E0002000694638300295FFF78AFF6846FEF7FA
:1026F0004EFB05B030BD0000F0B504006C4B87B058
:1027000005936C4B02A9029008300493FFF778FF01
:1027100002A8FEF73CFB2000674B02A90593674B1C
:10272000183004930294FFF76BFF02A8FEF72FFB0B
:102730002000634B02A90593624B28300493029456
:10274000FFF75EFF02A8FEF722FB20005E4B02A906
:1027500005935E4B383004930294FFF751FF02A8B3
:10276000FEF715FB23000A25883319680B684968B2
:102770001A6818689202920F6A430003000F121839
:102780008A841A6818685204520F6A430005000FC1
:10279000121808000A865A6848301204520F028044
:1027A0005A6858689206920F6A430007000F121881
:1027B0000A835A685868D204D20F6A430005000F92
:1027C00012188A815A685B681202120F1B03180FD5
:1027D00013006B431B180B802300A83354221800EE
:1027E000019300F003FD6068FEF74EFC042360686F
:1027F00003602300CC331988FEF7E0FE06236668E9
:10280000334F3360390002A8FEF76CFC039A02993B
:102810003000FEF746FE0723606803602300D833CC
:102820001988FEF7CBFE092366683900336002A8D9
:10283000FEF758FC039A02993000FEF732FE23009F
:102840006068E43305601988FEF7B8FE18236068F5
:1028500003602300C0331988FEF7B0FE1A236568B1
:102860001C4E2B60310002A8FEF73CFC039A029933
:102870002800FEF716FE1B23606803602300B433B4
:102880001988FEF79BFE1D23656831002B6002A8A6
:10289000FEF728FC0299039A2800FEF702FE1E2389
:1028A00060680360019B1988FEF788FE07B0F0BDE1
:1028B00091070008B5050008BF070008CB05000810
:1028C000F1080008E10500087F290008F705000865
:1028D000043D0008063D00081FB504001B4B694677
:1028E00003931B4B009028300293FFF789FE684644
:1028F000FEF74DFA2000174B69460393164B08303C
:1029000002930094FFF77CFE6846FEF740FA200031
:10291000124B69460393124B183002930094FFF751
:102920006FFE6846FEF733FA20000E4B69460393AC
:102930000D4B383002930094FFF762FE6846FEF7B5
:1029400026FA6068FEF7A0FB1FBDC0460D06000812
:102950000F06000825060008270600083D060008A7
:102960003F0600088B29000855060008836810B54B
:10297000002B01D100F00BFCC368984710BD10B5C7
:1029800000686830FFF7F2FF10BD10B500686830CE
:10299000FFF7ECFF10BD006818220300AC331B6882
:1029A00010B55343C0188030FFF7E0FF10BD10B5DD
:1029B00000686830FFF7DAFF10BD1FB504006846F5
:1029C000FEF76FFF21006846FFF756FD6846FEF7E9
:1029D000DEF9200004B010BD10B54430FFF7EDFF64
:1029E00010BD10B53430FFF7E8FF10BD10B524302E
:1029F000FFF7E3FF10BD10B51430FFF7DEFF10BD89
:102A000010B54430FFF7D9FF10BD10B53430FFF7D3
:102A1000D4FF10BD10B52430FFF7CFFF10BD10B5A7
:102A20001430FFF7CAFF10BD10B54430FFF7C5FFE3
:102A300010BD10B53430FFF7C0FF10BD10B5243005
:102A4000FFF7BBFF10BD10B51430FFF7B6FF10BD88
:102A50001FB504006846FEF734FF21006846FFF703
:102A600089FD6846FEF793F9200004B010BD10B54B
:102A70005430FFF7EDFF10BD10B55430FFF7E8FFFD
:102A800010BD10B55430FFF7E3FF10BD1FB500288F
:102A90000BD06846FEF705FF029B002B02D068466C
:102AA000FFF764FF6846FEF772F905B000BD07B591
:102AB00083680191002B01D100F069FBC36801A973
:102AC000984707BDF0B5040085B0406EFEF74AF99F
:102AD000002802D1A36E002B34D0606EFEF742F9BD
:102AE000051E31D12600637C70360700002B00D113
:102AF0003778210068462431FEF7D3FE38002700DE
:102B00006946FFF7C3FF6846FEF741F9637C7137FA
:102B1000002B05D13578002D02D001253B785D4092
:102B2000210068463431FEF7BCFE69462800FFF7F5
:102B3000ADFF6846FEF72BF900230122A366E2668B
:102B400033703B7005B0F0BDA36E5D1CA566092D0A
:102B500024D9220070321378002B10D121000133C8
:102B60001370657C14315D406846FEF79AFE2800BC
:102B70006946FFF78BFF6846FEF709F9E2E7234B4A
:102B80009D420BD9220071321378002B06D121000F
:102B900001331370657C44315D40E5E7E36D002B44
:102BA000D0D0FA26B600B542CCD9FA23DB009D423C
:102BB0000BD8C8212800FDF73FFB0029C2D1200017
:102BC00001215430FFF773FFBCE7114B64219D4294
:102BD000F0D9FA2332211B019D42EBD9192128009B
:102BE000FDF72AFB0B4B9D42E7D90029AAD1200013
:102BF000E16E5430FFF75BFF3100A06EFDF71CFB68
:102C000000299FD1E36E0133E3669BE7E7030000F1
:102C1000B80B00008813000008B4024B9C4604382F
:102C200008BC6047C52A0008F0B5040085B0406EB6
:102C3000FEF798F8002802D1A36E002B34D0606E06
:102C4000FEF790F8051E31D12600637C7036070030
:102C5000002B00D13778210068462431FEF721FE91
:102C6000380027006946FFF711FF6846FEF78FF826
:102C7000637C7137002B05D13578002D02D00125FA
:102C80003B785D40210068463431FEF70AFE694614
:102C90002800FFF7FBFE6846FEF779F800230122C3
:102CA000A366E26633703B7005B0F0BDA36E5D1C99
:102CB000A566092D24D9220070321378002B10D17B
:102CC000210001331370657C14315D406846FEF7C6
:102CD000E8FD28006946FFF7D9FE6846FEF757F879
:102CE000E2E7234B9D420BD9220071321378002B6F
:102CF00006D1210001331370657C44315D40E5E766
:102D0000E36D002BD0D0FA26B600B542CCD9FA2319
:102D1000DB009D420BD8C8212800FDF78DFA002961
:102D2000C2D1200001215430FFF7C1FEBCE7114B96
:102D300064219D42F0D9FA2332211B019D42EBD937
:102D400019212800FDF778FA0B4B9D42E7D900299D
:102D5000AAD12000E16E5430FFF7A9FE3100A06E29
:102D6000FDF76AFA00299FD1E36E0133E3669BE722
:102D7000E7030000B80B00008813000008B4024B02
:102D80009C46043808BC6047292C0008F0B50400B4
:102D900085B0406EFDF7E6FF002802D1A36E002B40
:102DA00034D0606EFDF7DEFF051E31D12600637C56
:102DB00070360700002B00D1377821006846243197
:102DC000FEF76FFD380027006946FFF75FFE684693
:102DD000FDF7DDFF637C7137002B05D13578002DC1
:102DE00002D001253B785D40210068463431FEF772
:102DF00058FD69462800FFF749FE6846FDF7C7FF02
:102E000000230122A366E26633703B7005B0F0BD7B
:102E1000A36E5D1CA566092D24D92200703213789B
:102E2000002B10D1210001331370657C14315D40FB
:102E30006846FEF736FD28006946FFF727FE68461C
:102E4000FDF7A5FFE2E7234B9D420BD9220071322B
:102E50001378002B06D1210001331370657C4431B7
:102E60005D40E5E7E36D002BD0D0FA26B600B54211
:102E7000CCD9FA23DB009D420BD8C8212800FDF7EE
:102E8000DBF90029C2D1200001215430FFF70FFEE9
:102E9000BCE7114B64219D42F0D9FA2332211B017A
:102EA0009D42EBD919212800FDF7C6F90B4B9D4235
:102EB000E7D90029AAD12000E16E5430FFF7F7FDD1
:102EC0003100A06EFDF7B8F900299FD1E36E013300
:102ED000E3669BE7E7030000B80B000088130000DF
:102EE00008B4024B9C46043808BC60478D2D00088E
:102EF000F8B50300060018240200AC33A8361B689E
:102F0000316878325B1A5C431419270030370500AA
:102F1000B74200D9370000226B681A606868BC426B
:102F200007D021686268FEF7BCFAFEF7C5F81834CE
:102F3000F4E7142332680F2153430360FEF7DFF8F0
:102F40007E21FEF7ABF8F8BD1FB504001B4B6946A8
:102F500003931B4B009008300293FFF751FB684628
:102F6000FDF715FF2000174B69460393164B1830E9
:102F700002930094FFF744FB6846FDF708FF20002A
:102F8000124B69460393124B283002930094FFF7CB
:102F900037FB6846FDF7FBFE20000E4B69460393A6
:102FA0000D4B383002930094FFF72AFB6846FDF77B
:102FB000EEFE2000FFF79CFF1FBDC0462111000858
:102FC0006B060008671100088106000897290008B1
:102FD00097060008AF290008AD060008002301216C
:102FE00010B5394A136053609360D3601361516127
:102FF000364A10688843106035485060042093605A
:103000001468204302241060106820431060106888
:103010000143116019212F4A136014712E4A136065
:1030200011712E4A0919136011712D4A0E3913605E
:1030300011712C4A0331136011712B4A0739136047
:1030400011712A4A013113601171294A13601171FB
:10305000284A013113601171274A13601171274A00
:10306000063913601171264A13601171254A013126
:1030700013601171244A13601171072223490B60F8
:103080000A7123490B600A7122490B600A712249B7
:103090000B600A7121490B600A7121490B600A71AA
:1030A00020490B600A7120490B600A711F490B60AF
:1030B0000A711F490B600A711E490B600A711E4993
:1030C0000B600A7110BDC0464002002010E000E015
:1030D0007FBB0000180200202002002038020020E0
:1030E000280200203002002070010020780100201A
:1030F000800100208801002090010020980100201C
:10310000A0010020D8010020E0010020E8010020FB
:10311000F0010020F8010020000200200802002039
:1031200010020020A8010020B0010020B8010020FA
:10313000C0010020C8010020D00100200D488546B4
:103140000D480E490E4A002302E0D458C4500433FF
:10315000C4188C42F9D30B4A0B4C002301E01360D6
:103160000432A242FBD3FEF7BFF800F01BF8FEF7D3
:10317000C9FBFEE7001000200000002064000020D2
:10318000884D00086400002068020020FEE710B5AA
:1031900000F000F810B5062000F030F9012000F032
:1031A0009DFC000070B500260C4D0D4C641BA41056
:1031B000A64209D1002600F093FC0A4D0A4C641B7C
:1031C000A410A64205D170BDB300EB589847013654
:1031D000EEE7B300EB5898470136F2E77C4D000864
:1031E0007C4D00087C4D0008844D0008002310B57C
:1031F0009A4200D110BDCC5CC4540133F8E710B53D
:10320000884202D98B18984203D3002307E08B5CD5
:103210008354013AFBD210BDCC5CC45401339A42B2
:10322000FAD1F8E703001218934200D170471970E1
:103230000133F9E770B50500002910D00C1F236891
:10324000002B00DAE418280000F018F91D4A136872
:10325000002B05D163601460280000F010F970BDE8
:10326000A34209D9216860188342F3D118685B68CA
:1032700041182160EEE713005A68002A01D0A242EB
:10328000F9D919685818A0420BD1206809185818A4
:1032900019608242E0D110685268411819605A6082
:1032A000DAE7A04202D90C232B60D5E72168601829
:1032B000824203D1106852684118216062605C60EC
:1032C000CAE7C04658020020032370B5CD1C9D43B9
:1032D000083506000C2D1ED20C25A9421DD8300041
:1032E00000F0CCF8254A14682100002919D1244C9B
:1032F0002368002B03D1300000F044F8206029003F
:10330000300000F03FF8431C2BD10C233000336019
:1033100000F0B5F803E0002DDFDA0C233360002065
:1033200070BD0B685B1B19D40B2B03D90B60CC1839
:10333000256003E04B688C420DD11360300000F033
:103340009EF8200007220B30231D9043C31AE7D0BC
:103350005A42E250E4E763600C00EFE70C00496872
:10336000C3E70323C41C9C43A042E1D0211A3000D0
:1033700000F008F8431CDBD1C7E7C0465802002024
:103380005C020020002370B5064C05000800236095
:1033900000F096FB431C03D12368002B00D02B6068
:1033A00070BDC0466402002070B504000D001F29E6
:1033B00004D9162303600120404270BD436C002BEA
:1033C00004D08A009B181A68002A08D1200000F057
:1033D00031F82A000100200000F01AF8EDE7002083
:1033E000012AEAD0511C03D1162301302360E4E7FF
:1033F000002428001C6090472000DEE710B5034B36
:1034000001001868FFF7D0FF10BDC0460000002083
:10341000002370B5064C050008001100236000F081
:1034200047FB431C03D12368002B00D02B6070BDE9
:103430006402002010B500F033FB10BD0EB400B5DF
:103440000B499CB01DAB029006900791049109486E
:10345000094904CB0591006802A9019300F072F8B4
:103460000023029A13701CB008BC03B01847C04672
:10347000FFFFFF7F000000200802FFFF704770473A
:10348000F0B58E6885B007000C00039201939E4250
:103490003CD890238A89DB001A4234D0032509697D
:1034A00023685B1A0293636902985D43EB0F5D1911
:1034B000019B6D1001331B18AB4200D91D00530551
:1034C00032D529003800FFF7FFFE061E09D10C2374
:1034D0003B6040230120A28940421343A38105B0F1
:1034E000F0BD029A2169FFF781FEA389144A1A40B0
:1034F00080231343A381029B2661F6182660656131
:10350000019EED1AA560019B9E4200D9019E3200EA
:1035100003992068FFF773FEA36800209B1BA3603C
:1035200023689E192660DAE72A00380000F089FA3D
:10353000061EE0D121693800FFF77CFEC7E7C046D0
:103540007FFBFFFFF0B5A1B003901D008B890F003A
:1035500016001B0611D50B69002B0ED14021FFF779
:10356000B3FE38603861002805D10C23039A013876
:10357000136021B0F0BD40237B61002308AC636180
:10358000203363761033A376079535002B78002B14
:1035900001D0252B46D1AB1B05930CD0320039004E
:1035A0000398FFF76DFF431C00D1AEE06269059BF5
:1035B0009446634463612B78002B00D1A5E001227F
:1035C00000235242626004A9543252186E1C2360D8
:1035D000E360A3601370A36531780522534800F0BF
:1035E00025FA751C00281FD12268D30604D5532361
:1035F00004A95B1820211970130704D5532304A9CB
:103600005B182B21197033782A2B16D03500002136
:103610000A20E3682A786E1C303A092A4ED900291C
:1036200018D010E00135B1E7404B2268C01A0123E1
:103630008340134323602E00CEE7079B191D1B68B0
:103640000791002B01DB0B9304E05B42E360022354
:10365000134323602B782E2B0AD16B782A2B35D17C
:10366000079B02351A1D1B680792002B2BDB099361
:103670002F4E29780322300000F0D8F9002806D018
:103680004023801B8340226801351343236029783F
:10369000062228486E1C217600F0C8F900283CD08C
:1036A000254B002B25D10722079B07339343083373
:1036B00007936369049A9B18636166E7434301219A
:1036C0009B183500A6E701235B42D0E700230A20C0
:1036D0001A000135636029786E1C3039092903D935
:1036E000002BC5D00992C3E742430123521835008D
:1036F000F1E707AB00933A00104B2100039800E07C
:1037000000BF0490049B0133D3D1BB890D985B06A5
:1037100000D42EE7012040422BE707AB00933A008C
:10372000064B2100039800F079F8EAE7484D0008BD
:103730004E4D0008524D0008000000008134000882
:10374000F7B5150001938A680B6900900C0093424D
:1037500000DA130022002B6043321278002A01D0D5
:1037600001332B6023689B0602D52B6802332B6044
:10377000062723681F4027D0230043331B785A1E97
:1037800093412268920630D4220001994332009876
:10379000089EB047431C25D0062320682A68E168AC
:1037A00003400025042B03D18D1AEB43DB171D408A
:1037B000A3682269934201DD9B1AED180027BD42E0
:1037C00020D1002010E00137E3682A689B1ABB4231
:1037D000D2DD22000123193201990098089EB047DA
:1037E000431CF0D101204042FEBD3020E11843319E
:1037F000087021005A1C45310978A218433202335F
:103800001170C1E7220001231A3201990098089E25
:10381000B047431CE6D00137D1E70000F0B589B0CE
:1038200004920A0043320593039002920A7E0C0030
:103830000E9B6E2A00D186E01FD8632A33D008D8A9
:10384000002A00D18CE0582A4DD0250042352A703C
:1038500030E0642A01D0692AF7D1196825680A1D69
:10386000280629D508681A60002803DA2D23029A51
:10387000404213706B4E0A274FE0732A74D008D869
:103880006F2A1FD0702AE0D1202209680A432260E3
:1038900003E0752A16D0782AD7D122007821453244
:1038A0001170614E22E025001A684235111D196021
:1038B00013682B70012365E008681A606906D3D588
:1038C00000B2D1E719682568081D186008682E063F
:1038D00005D5544E08276F2A1BD00A2719E06D061C
:1038E000F7D580B2F5E745314E4E0A701868226868
:1038F000011D00681960150621D5D30702D52023C4
:103900001A4322601027002803D1202322689A43FB
:1039100022602300002243331A706368A360002BE7
:1039200058DB0422216891432160002854D1029D74
:10393000002B5AD02500337842352B7055E05506C0
:10394000DBD580B2D9E71A680D68101D4969186087
:1039500013682E0601D5196002E06D06FBD51980AB
:103960000023029D23614FE01A68111D196015683C
:1039700000216268280000F059F8002801D0401B9F
:103980006060636823610023029A13703CE023693E
:103990002A0004990398059DA847431C3ED023683C
:1039A0009B0715D4079BE068984239DA180037E086
:1039B00022000123193204990398059EB047431C45
:1039C0002CD00135E368079A9B1AAB42F0DCE9E79B
:1039D0000025F7E70028ADD0029D3900FCF72CFC4C
:1039E000735C013D2B700028F7D1082F09D12368A3
:1039F000DB0706D563682269934202DC3023013D70
:103A00002B70029B5B1B2361059B07AA009321007F
:103A1000049B0398FFF794FE431CB8D10120404259
:103A200009B0F0BD594D00086A4D0008C9B28218AE
:103A3000904201D10020704703788B42FBD00130C7
:103A4000F6E7F8B507000D001600002905D11100B2
:103A5000FFF73AFC04002000F8BD002A03D1FFF76D
:103A6000E9FB3400F7E700F012F82C00B042F2D284
:103A700031003800FFF728FC041EECD0290032008A
:103A8000FFF7B4FB29003800FFF7D4FBE3E70B1F77
:103A90001B68181F002B01DA0B58C0187047000074
:103AA00058220120014B40421A60704764020020F6
:103AB00058220120014B40421A60704764020020E6
:103AC000044A1368002B00D1034B1818106018002B
:103AD0007047C0466002002068020020FEE7C04632
:103AE000F8B5C046F8BC08BC9E467047F8B5C0465D
:083AF000F8BC08BC9E467047BB
:103AF8000000000000000000190400080000000099
:103B080000000000492F0008B3050008A52600089A
:103B18000000000000000000F7290008ED29000857
:103B2800E3290008D92900086F2A00088D2D00080C
:103B3800FCFFFFFF00000000E12E0008000000006D
:103B4800000000001F2A0008152A00080B2A000898
:103B5800012A0008792A0008292C0008FCFFFFFF29
:103B6800000000007D2D000800000000000000009B
:103B7800472A00083D2A0008332A0008292A000895
:103B8800832A0008C52A0008FCFFFFFF0000000088
:103B9800192C00080000000000000000D9280008C7
:103BA800F11600085326000800000000000000007D
:103BB800F9260008E1150008132600080000000097
:103BC80001000000020000000300000004000000E3
:103BD80005000000060000000700000008000000C3
:103BE800090000000A0000000B0000000C000000A3
:103BF8000D0000000E0000000F0000001000000083
:103C0800110000001200000013000000280000004E
:103C1800290000002A0000002B0000002C000000F2
:103C28002D0000002E0000002F00000030000000D2
:103C380031000000320000003300000034000000B2
:103C48003500000036000000370000003800000092
:103C5800390000003A0000003B000000140000009A
:103C680015000000160000001700000018000000F2
:103C7800190000001A0000001B0000001C000000D2
:103C88001D0000001E0000001F00000020000000B2
:103C98002100000022000000230000002400000092
:103CA8002500000026000000270000003C0000005E
:103CB8003D0000003E0000003F0000004000000002
:103CC80041000000420000004300000044000000E2
:103CD80045000000460000004700000048000000C2
:103CE800490000004A0000004B0000004C000000A2
:103CF8004D0000004E0000004F0000003A002E006A
:103D08002020002564001A190000780000007800BF
:103D180000007800080070000000780010006800BB
:103D280000007800180060000000780020005800AB
:103D3800000078002800500000007800300048009B
:103D4800000078003800400000007800400038008B
:103D5800000078004800300000007800500028007B
:103D6800000078005800200000007800600018006B
:103D7800000078006800100000007800700008005B
:103D8800000078007800000008007000000078004B
:103D9800080070000800700008007000100068003B
:103DA800080070001800600008007000200058002B
:103DB800080070002800500008007000300048001B
:103DC800080070003800400008007000400038000B
:103DD80008007000480030000800700050002800FB
:103DE80008007000580020000800700060001800EB
:103DF80008007000680010000800700070000800DB
:103E080008007000780000001000680000007800CA
:103E180010006800080070001000680010006800BA
:103E280010006800180060001000680020005800AA
:103E3800100068002800500010006800300048009A
:103E4800100068003800400010006800400038008A
:103E5800100068004800300010006800500028007A
:103E6800100068005800200010006800600018006A
:103E7800100068006800100010006800700008005A
:103E8800100068007800000018006000000078004A
:103E9800180060000800700018006000100068003A
:103EA800180060001800600018006000200058002A
:103EB800180060002800500018006000300048001A
:103EC800180060003800400018006000400038000A
:103ED80018006000480030001800600050002800FA
:103EE80018006000580020001800600060001800EA
:103EF80018006000680010001800600070000800DA
:103F080018006000780000002000580000007800C9
:103F180020005800080070002000580010006800B9
:103F280020005800180060002000580020005800A9
:103F38002000580028005000200058003000480099
:103F48002000580038004000200058004000380089
:103F58002000580048003000200058005000280079
:103F68002000580058002000200058006000180069
:103F78002000580068001000200058007000080059
:103F88002000580078000000280050000000780049
:103F98002800500008007000280050001000680039
:103FA8002800500018006000280050002000580029
:103FB8002800500028005000280050003000480019
:103FC8002800500038004000280050004000380009
:103FD80028005000480030002800500050002800F9
:103FE80028005000580020002800500060001800E9
:103FF80028005000680010002800500070000800D9
:1040080028005000780000003000480000007800C8
:1040180030004800080070003000480010006800B8
:1040280030004800180060003000480020005800A8
:104038003000480028005000300048003000480098
:104048003000480038004000300048004000380088
:104058003000480048003000300048005000280078
:104068003000480058002000300048006000180068
:104078003000480068001000300048007000080058
:104088003000480078000000380040000000780048
:104098003800400008007000380040001000680038
:1040A8003800400018006000380040002000580028
:1040B8003800400028005000380040003000480018
:1040C8003800400038004000380040004000380008
:1040D80038004000480030003800400050002800F8
:1040E80038004000580020003800400060001800E8
:1040F80038004000680010003800400070000800D8
:1041080038004000780000004000380000007800C7
:1041180040003800080070004000380010006800B7
:1041280040003800180060004000380020005800A7
:104138004000380028005000400038003000480097
:104148004000380038004000400038004000380087
:104158004000380048003000400038005000280077
:104168004000380058002000400038006000180067
:104178004000380068001000400038007000080057
:104188004000380078000000480030000000780047
:104198004800300008007000480030001000680037
:1041A8004800300018006000480030002000580027
:1041B8004800300028005000480030003000480017
:1041C8004800300038004000480030004000380007
:1041D80048003000480030004800300050002800F7
:1041E80048003000580020004800300060001800E7
:1041F80048003000680010004800300070000800D7
:1042080048003000780000005000280000007800C6
:1042180050002800080070005000280010006800B6
:1042280050002800180060005000280020005800A6
:104238005000280028005000500028003000480096
:104248005000280038004000500028004000380086
:104258005000280048003000500028005000280076
:104268005000280058002000500028006000180066
:104278005000280068001000500028007000080056
:104288005000280078000000580020000000780046
:104298005800200008007000580020001000680036
:1042A8005800200018006000580020002000580026
:1042B8005800200028005000580020003000480016
:1042C8005800200038004000580020004000380006
:1042D80058002000480030005800200050002800F6
:1042E80058002000580020005800200060001800E6
:1042F80058002000680010005800200070000800D6
:1043080058002000780000002000580008007000C5
:1043180050002800000078002000580010006800B5
:1043280050002800080070007000080000007800A5
:104338002000580028005000500028001800600095
:104348005000280020005800500028002800500085
:104358005000280030004800200058005800200075
:104368005000280038004000200058006800100065
:104378002000580040003800200058007800000055
:104388005000280040003800280050000000780045
:104398002000580018006000280050002000580035
:1043A8005000280048003000500028005000280025
:1043B8002800500040003800700008000800700015
:1043C8005000280058002000500028006000180005
:1043D80070000800100068005000280068001000F5
:1043E80050002800700008005000280068001000E5
:1043F80050002800780000005800200000007800D5
:1044080058002000080070003000480008007000C4
:1044180058002000100068005800200018006000B4
:1044280058002000200058007000080018006000A4
:104438003000480028005000580020003000480094
:104448005800200038004000580020004000380084
:104458005800200048003000580020005000280074
:104468005800200058002000580020006000180064
:104478005800200068001000300048007800000054
:104488005800200070000800380040000000780044
:104498003000480018006000580020007800000034
:1044A8003800400048003000700008002000580024
:1044B8003800400040003800700008002800500014
:1044C8006000180000007800600018000800700004
:1044D80070000800300048006000180010006800F4
:1044E80060001800180060006000180020005800E4
:1044F80060001800280050006000180030004800D4
:1045080060001800380040000000780000007800C3
:1045180000007800080070000000780010006800B3
:1045280000007800180060000000780020005800A3
:104538000000780028005000000078003000480093
:104548000000780038004000000078004000380083
:104558000000780048003000000078005000280073
:104568000000780058002000000078006000180063
:104578000000780068001000000078007000080053
:104588000000780078000000080070000000780043
:104598000800700008007000080070001000680033
:1045A8000800700018006000080070002000580023
:1045B8000800700028005000080070003000480013
:1045C8000800700038004000080070004000380003
:1045D80008007000480030000800700050002800F3
:1045E80008007000580020000800700060001800E3
:1045F80008007000680010000800700070000800D3
:1046080008007000780000001000680000007800C2
:1046180010006800080070001000680010006800B2
:1046280010006800180060001000680020005800A2
:104638001000680028005000100068003000480092
:104648001000680038004000100068004000380082
:104658001000680048003000100068005000280072
:104668001000680058002000100068006000180062
:104678001000680068001000100068007000080052
:104688001000680078000000180060000000780042
:104698001800600008007000180060001000680032
:1046A8001800600018006000180060002000580022
:1046B8001800600028005000180060003000480012
:1046C8001800600038004000180060004000380002
:1046D80018006000480030001800600050002800F2
:1046E80018006000580020001800600060001800E2
:1046F80018006000680010001800600070000800D2
:1047080018006000780000002000580000007800C1
:1047180020005800080070002000580010006800B1
:1047280020005800180060002000580020005800A1
:104738002000580028005000200058003000480091
:104748002000580038004000200058004000380081
:104758002000580048003000200058005000280071
:104768002000580058002000200058006000180061
:104778002000580068001000200058007000080051
:104788002000580078000000280050000000780041
:104798002800500008007000280050001000680031
:1047A8002800500018006000280050002000580021
:1047B8002800500028005000280050003000480011
:1047C8002800500038004000280050004000380001
:1047D80028005000480030002800500050002800F1
:1047E80028005000580020002800500060001800E1
:1047F80028005000680010002800500070000800D1
:1048080028005000780000003000480000007800C0
:1048180030004800080070003000480010006800B0
:1048280030004800180060003000480020005800A0
:104838003000480028005000300048003000480090
:104848003000480038004000300048004000380080
:104858003000480048003000300048005000280070
:104868003000480058002000300048006000180060
:104878003000480068001000300048007000080050
:104888003000480078000000380040000000780040
:104898003800400008007000380040001000680030
:1048A8003800400018006000380040002000580020
:1048B8003800400028005000380040003000480010
:1048C8003800400038004000380040004000380000
:1048D80038004000480030003800400050002800F0
:1048E80038004000580020003800400060001800E0
:1048F80038004000680010003800400070000800D0
:1049080038004000780000004000380000007800BF
:1049180040003800080070004000380010006800AF
:10492800400038001800600040003800200058009F
:10493800400038002800500040003800300048008F
:10494800400038003800400040003800400038007F
:10495800400038004800300040003800500028006F
:10496800400038005800200040003800600018005F
:10497800400038006800100040003800700008004F
:10498800400038007800000048003000000078003F
:10499800480030000800700048003000100068002F
:1049A800480030001800600048003000200058001F
:1049B800480030002800500048003000300048000F
:1049C80048003000380040004800300040003800FF
:1049D80048003000480030004800300050002800EF
:1049E80048003000580020004800300060001800DF
:1049F80048003000680010004800300070000800CF
:104A080048003000780000005000280000007800BE
:104A180050002800080070005000280010006800AE
:104A2800500028001800600050002800200058009E
:104A3800500028002800500050002800300048008E
:104A4800500028003800400050002800400038007E
:104A5800500028004800300050002800500028006E
:104A6800500028005800200050002800600018005E
:104A7800500028006800100050002800700008004E
:104A8800500028007800000058002000000078003E
:104A9800580020000800700058002000100068002E
:104AA800580020001800600058002000200058001E
:104AB800580020002800500058002000300048000E
:104AC80058002000380040005800200040003800FE
:104AD80058002000480030005800200050002800EE
:104AE80058002000580020005800200060001800DE
:104AF80058002000680010005800200070000800CE
:104B080058002000780000006000180000007800BD
:104B180060001800080070006000180010006800AD
:104B2800600018001800600060001800200058009D
:104B3800600018002800500060001800300048008D
:104B4800600018003800400060001800400038007D
:104B5800600018004800300060001800500028006D
:104B6800600018005800200060001800600018005D
:104B7800600018006800100060001800700008004D
:104B8800600018007800000068001000000078003D
:104B9800680010000800700068001000100068002D
:104BA800680010001800600068001000200058001D
:104BB800680010002800500068001000300048000D
:104BC80068001000380040006800100040003800FD
:104BD80068001000480030006800100050002800ED
:104BE80068001000580020006800100060001800DD
:104BF80068001000680010006800100070000800CD
:104C080068001000780000007000080000007800BC
:104C180070000800080070007000080010006800AC
:104C2800700008001800600070000800200058009C
:104C3800700008002800500070000800300048008C
:104C4800700008003800400070000800400038007C
:104C5800700008004800300070000800500028006C
:104C6800700008005800200070000800600018005C
:104C7800700008006800100070000800700008004C
:104C8800700008007800000078000000000078003C
:104C9800780000000800700078000000100068002C
:104CA800780000001800600078000000200058001C
:104CB800780000002800500078000000300048000C
:104CC80078000000380040007800000040003800FC
:104CD80078000000480030007800000050002800EC
:104CE80078000000580020007800000060001800DC
:104CF80078000000680010007800000070000800CC
:104D080078000000780000000000000000000000AB
:104D1800290A00080000000000000000B909000886
:104D28000000000000000000E10C0008CDE0F1F2F6
:104D3800F0EEE9EAE000C1F3E4E8EBFCEDE8EA00B4
:104D4800232D302B2000686C4C006566674546476C
:104D580000303132333435363738394142434445EF
:104D6800460030313233343536373839616263645E
:044D7800656600006C
:084D7C00E9000008DD2F00082A
:044D8400C100000862
:104D880004000020000000000000000000000000F7
:104D9800000000000000000000000000000000000B
:104DA80000000000000000000000000000000000FB
:104DB80000000000000000000000000000000000EB
:104DC80000000000000000000000000000000000DB
:104DD80000000000000000000000000000000000CB
:044DE80000000000C7
:040000050800313D81
:00000001FF
