:020000040800F2
:1000000000100020ED2F00083D3000083D300008B2
:1000100000000000000000000000000000000000E0
:100020000000000000000000000000003D3000085B
:1000300000000000000000003D300008890D0008AD
:100040003D300008000000003D3000083D30000851
:100050003D300008F90E00082D0F0008610F000860
:1000600000000000410E00085D0E0008890E000827
:100070003D3000088D0E0008AD0E000800000000A5
:10008000B50E00080000000000000000D50E0008BA
:1000900000000000D70E0008D90E00083D3000080F
:1000A000000000003D30000800000000DD0E0008E8
:1000B0000000000000000000000000000000000040
:1000C00010B5064C2378002B07D1054B002B02D02E
:1000D000044800E000BF0123237010BD640000202D
:1000E0000000000090390008044B10B5002B03D02D
:1000F0000349044800E000BF10BDC04600000000F6
:1001000068000020903900080023C25C0133002AF7
:10011000FBD1581E7047000003B4714649084000E7
:100120004900095A49008E4403BC70470022430825
:100130008B4274D303098B425FD3030A8B4244D3AF
:10014000030B8B4228D3030C8B420DD3FF220902F1
:1001500012BA030C8B4202D31212090265D0030BB0
:100160008B4219D300E0090AC30B8B4201D3CB03A6
:10017000C01A5241830B8B4201D38B03C01A5241E8
:10018000430B8B4201D34B03C01A5241030B8B42EA
:1001900001D30B03C01A5241C30A8B4201D3CB02D5
:1001A000C01A5241830A8B4201D38B02C01A5241BA
:1001B000430A8B4201D34B02C01A5241030A8B42BD
:1001C00001D30B02C01A5241CDD2C3098B4201D3D5
:1001D000CB01C01A524183098B4201D38B01C01A53
:1001E000524143098B4201D34B01C01A52410309CA
:1001F0008B4201D30B01C01A5241C3088B4201D379
:10020000CB00C01A524183088B4201D38B00C01A25
:10021000524143088B4201D34B00C01A5241411A4C
:1002200000D20146524110467047FFE701B5002059
:1002300000F0F0F802BDC0460029F7D076E770471D
:1002400003460B437FD4002243088B4274D3030937
:100250008B425FD3030A8B4244D3030B8B4228D3D8
:10026000030C8B420DD3FF22090212BA030C8B42FE
:1002700002D31212090265D0030B8B4219D300E09E
:10028000090AC30B8B4201D3CB03C01A5241830B23
:100290008B4201D38B03C01A5241430B8B4201D3D3
:1002A0004B03C01A5241030B8B4201D30B03C01AFC
:1002B0005241C30A8B4201D3CB02C01A5241830A76
:1002C0008B4201D38B02C01A5241430A8B4201D3A5
:1002D0004B02C01A5241030A8B4201D30B02C01ACF
:1002E0005241CDD2C3098B4201D3CB01C01A524136
:1002F00083098B4201D38B01C01A524143098B42BF
:1003000001D34B01C01A524103098B4201D30B01A7
:10031000C01A5241C3088B4201D3CB00C01A5241CC
:1003200083088B4201D38B00C01A524143088B4291
:1003300001D34B00C01A5241411A00D2014652412A
:10034000104670475DE0CA0F00D04942031000D349
:100350004042534000229C4603098B422DD3030A9E
:100360008B4212D3FC22890112BA030A8B420CD3AE
:10037000890192118B4208D3890192118B4204D3D7
:1003800089013AD0921100E08909C3098B4201D357
:10039000CB01C01A524183098B4201D38B01C01A91
:1003A000524143098B4201D34B01C01A5241030908
:1003B0008B4201D30B01C01A5241C3088B4201D3B7
:1003C000CB00C01A524183088B4201D38B00C01A64
:1003D0005241D9D243088B4201D34B00C01A52413B
:1003E000411A00D20146634652415B10104601D3C8
:1003F0004042002B00D54942704763465B1000D352
:10040000404201B5002000F005F802BD0029F8D0F7
:1004100016E770477047C046436901334361704730
:10042000883070B50D000400006803689B68984729
:1004300025602B6828001B68984770BD012A03D0EF
:10044000022A03D0002070470160FBE70B680360BD
:10045000F8E7012A03D0022A03D000207047016088
:10046000FBE70B680360F8E7012A03D0022A03D0F8
:10047000002070470160FBE70B680360F8E7012A82
:1004800003D0022A03D0002070470160FBE70B680D
:100490000360F8E7012A03D0022A03D00020704746
:1004A0000160FBE70B680360F8E7012A03D0022A2A
:1004B00003D0002070470160FBE70B680360F8E79A
:1004C000006810B501006D31FF31FFF7A9FF10BDC5
:1004D000012A03D0022A03D0002070470160FBE705
:1004E0000B680360F8E7006810B50100F031FFF712
:1004F00097FF10BD012A03D0022A03D000207047C5
:100500000160FBE70B680360F8E7872310B500681C
:100510009B00C118FFF784FF10BD012A03D0022AF7
:1005200003D0002070470160FBE70B680360F8E729
:100530007047012A03D0022A03D0002070470160CF
:10054000FBE70B680360F8E7006810B501006D3148
:10055000FF31FFF765FF10BD012A03D0022A03D047
:10056000002070470160FBE70B680360F8E70B7839
:1005700010B5002B05D0006801006D31FF31FFF789
:100580004FFF10BD012A03D0022A03D0002070477C
:100590000160FBE70B680360F8E7704703681A0027
:1005A000B432126852009B18A6331A8801321A809E
:1005B0007047012A03D0022A03D00020704701604F
:1005C000FBE70B680360F8E703681A00B4321268AF
:1005D00052009B18A6331A88013A1A807047012AE4
:1005E00003D0022A03D0002070470160FBE70B68AC
:1005F0000360F8E7012A03D0022A03D000207047E5
:100600000160FBE70B680360F8E7012A03D0022AC8
:1006100003D0002070470160FBE70B680360F8E738
:100620007047012A03D0022A03D0002070470160DE
:10063000FBE70B680360F8E77047012A03D0022A42
:1006400003D0002070470160FBE70B680360F8E708
:100650007047012A03D0022A03D0002070470160AE
:10066000FBE70B680360F8E7012A03D0022A03D0F6
:10067000002070470160FBE70B680360F8E7012A80
:1006800003D0022A03D0002070470160FBE70B680B
:100690000360F8E7012A03D0022A03D00020704744
:1006A0000160FBE70B680360F8E7012A03D0022A28
:1006B00003D0002070470160FBE70B680360F8E798
:1006C000012A03D0022A03D0002070470160FBE713
:1006D0000B680360F8E70B1A9B10002B14DD0278FF
:1006E000002A03D04278002A01D101307047827875
:1006F000002A01D10230F9E7C278002A01D1033083
:10070000F4E70430013BE8E70B1A022B0CD0032B73
:1007100006D0012B02D10378002BE7D00800E5E7D3
:100720000378002BE2D001300378002BDED00130BB
:10073000F1E70B1A9B10002B14DD0278002A03D17D
:100740004278002A01D0013070478278002A01D017
:100750000230F9E7C278002A01D00330F4E7043010
:10076000013BE8E70B1A022B0CD0032B06D0012B20
:1007700002D10378002BE7D10800E5E70378002BCE
:10078000E2D101300378002BDED10130F1E710B562
:100790000400002C05D0236820001B68984764687B
:1007A000F7E710BD302210B50300007A5143114A1B
:1007B000002807D090681860814201D3081A586059
:1007C000002018721C68A14208D892680120A41A5F
:1007D000A14202D8012200201A7210BD91680120A6
:1007E0008C42FAD8516892688A1A59688A42F1D2C2
:1007F000F3E7C04610E000E0F8B505000E00100079
:100800000A211700FFF792FC0A2184B23800FFF793
:1008100013FD240189B230000C430A21FFF786FC46
:1008200080B2000304430A213000FFF705FD88B2BF
:10083000000204430A212800FFF778FC0005044366
:100840000A212800FFF7F8FC08042043F8BDF8B59A
:1008500005000E0010000A2117005C03FFF7ECFCF6
:1008600089B238000C430A21FFF760FC80B2000116
:1008700004430A213000FFF759FC80B2000304430F
:100880000A213000FFF7D8FC88B2000204430A2195
:100890002800FFF74BFC000504430A212800FFF75E
:1008A000CBFC08042043F8BD73B504680021220086
:1008B000B43213680133052B0EDC136022002000D4
:1008C000B8321368C0300170012B0AD1BC342368E0
:1008D000042B03D1116073BD1160EFE7033B23606C
:1008E000F9E7002BF7D12100BC310B680A2B42D16C
:1008F000093B13606A46D11D03700B70231DDB6F2B
:10090000002B01D102F09BFB230020000833DB6F9A
:1009100078309847230088331B681D68CA236E1DF2
:10092000F377773BF377EA682D331343EB60EB689B
:100930005B06FCD52300B0331A88023B1988023BC2
:100940001888FFF759FF230022002100B233AA3292
:10095000A831A6341B881288098828602088FFF7F0
:1009600076FF80226860EB689343EB60FE23F377A9
:100970009A3BF377AFE703330B60ACE703008C33AC
:1009800010B5040018683221421C1A60FFF754FCAD
:10099000002904D18834206803685B68984710BD3B
:1009A00010B50A1A02D0202102F094FB10BD0000FD
:1009B00003691B0603D5024B4360024B436070473B
:1009C00023016745AB89EFCD01220369934303619E
:1009D000022302691343036180239B02C918402349
:1009E000890241610269134303617047F8B505004C
:1009F0003D35040046692878C0B205281AD8FFF7AB
:100A00008BFB06001A0039007300BC00EE002200C8
:100A100040321378E118F05C097E884200D0FAE099
:100A20000133DBB2012B00D90023137001223C34C7
:100A30009A432270F8BD2069C368DB07FAD40369C2
:100A40001B06F7D5FFF7B4FF022123691A698A4311
:100A50001A610122186902431A61230040331A788F
:100A6000013BB05C18701B78A06B1B021343038022
:100A70002970DFE72369DA689206DBD52022D9687E
:100A80000A43DA60802219690A431A6121002300AF
:100A900040313F331A780B78E3181A76A36B981C11
:100AA000E369A063DA00A218D66A7700966A22008A
:100AB000F6193E32B04203D01378DBB22B70B9E79F
:100AC0000126E01801309B19C677B34200D90023F4
:100AD000E361DB00E3189B6AA36300230B7001331F
:100AE0002B7004331370A5E72069C368DB07A1D41A
:100AF00003691B069ED52300210020331E002231EE
:100B0000CA1A9210002A20DD1F78002F03D15F78C7
:100B1000002F0DD00133994221D09B1B6362FFF758
:100B200047FF636A3D4AD15CFFF74EFF0423C5E7E8
:100B30009F78002F01D00233EDE7DF78002F01D03E
:100B40000333E8E70433013ADCE7CA1A022A0DD07E
:100B5000032A07D0012A0ED11A78002ADBD13E34AD
:100B60002378AAE71A78002AD5D101331A78002A07
:100B7000D1D10133F0E70B00CDE72369DA689206A3
:100B800000D457E72022D968254E0A43DA60802234
:100B900019690A431A61616ACB00E3189A6ADB6A31
:100BA0005B00D3181000934217D00232971E3F8883
:100BB000B742F7D01B1A260062182000591E8B413D
:100BC00001322236D37720303100FFF7B2FD032304
:100BD000864200D072E7002370E71800EAE722009F
:100BE000403213780133DBB2012B11D9002313708B
:100BF00026002000223631002030FFF79AFD032323
:100C0000864200D100232B7000233E34237011E76D
:100C10001370002BECD0012350E7C046CE3B0008F8
:100C2000FFFF0000012306C8103293408B6170471C
:100C3000036810B504009869FFF7F4FFC8216068E5
:100C4000FFF7B0FD0028F9D123689B6959681A683D
:100C500001238B409361C8216068FFF7A3FD002842
:100C6000F9D110BD70B504000D000368ED001869DE
:100C7000FFF7D8FF23686068DA699B6AEB589361D5
:100C8000FFF7D6FF23686068DA699B6A5D196B68B5
:100C90009361FFF7CDFF6421A068FFF783FD002873
:100CA000F9D170BD70B5437B0400012B23D0002B1C
:100CB00002D0022B2CD070BD01254069FFF7B2FF96
:100CC00029002369606B1A685B68266A994043199A
:100CD000916163635021FFF7AFFA124B8900CB5843
:100CE000626AF35CDB00D3181968E2695B689161A2
:100CF000E3626573DFE78069416802688B40936156
:100D0000FFF790FFE369E26A9A6102236373D2E717
:100D100001238069416802688B409361FFF782FF7D
:100D20000023F3E7843A00080368426801209040FA
:100D30001B691840431E9841C0B2704710B5046843
:100D4000002C05D0236820001B689847A468F7E7AB
:100D500010BD10B583680400002B02D003220100EF
:100D60009847200010BD10B504000830FFF7E6FFDB
:100D700020696169431C2361FFF75EFA002902D1F3
:100D80002000FFF7DBFF10BD10B50248FFF7EBFFB7
:100D900010BDC04640020020416902690023914213
:100DA00001D343610133180070470000037B002B1F
:100DB0000DD00023426803738368002A0ED0002BF5
:100DC00008D0936083685A60002343608360704753
:100DD0000B60F8E7044993604A60F5E70249002B8D
:100DE000F6D10B604B60EFE740020020002310B506
:100DF0004361FFF7DBFF10BD037B002B0CD10133F8
:100E00000373064B5A684260002A00D090601A684B
:100E10005860002A00D118607047C0464002002088
:100E2000012901D142637047022901D18263FAE7A7
:100E3000032901D1C263F6E70429F4D10264F2E781
:100E4000044B10B51868FFF7A2FC0122024B5A6050
:100E500010BDC0467001002000000240074B10B5D5
:100E60001868FFF794FC1023054C6360054B186865
:100E7000FFF78DFC80235B00636010BD78010020CC
:100E80000000024080010020FEE70000054B10B585
:100E90001868FFF77CFC0121034A138A8B431382F5
:100EA00010BDC04628020020002C014010B5FFF7FD
:100EB000EDFF10BD054B10B51868FFF768FC012168
:100EC000034A138A8B43138210BDC04630020020B0
:100ED00000040040FEE7FEE7FEE70000044B10B50B
:100EE0001868FFF754FC0122024B52421A6210BDEF
:100EF000380200200038014010B5094C6369DB0757
:100F000003D5084B1868FFF742FC63699B0703D5BC
:100F1000054B1868FFF73BFC0323636110BDC04617
:100F20000004014098010020A001002010B5094CE8
:100F300063695B0703D5084B1868FFF728FC6369F2
:100F40001B0703D5054B1868FFF721FC0C236361D1
:100F500010BDC04600040140D8010020E00100207F
:100F600010B52C4C6369DB0603D52B4B1868FFF7D3
:100F70000EFC63699B0603D5284B1868FFF707FC36
:100F800063695B0603D5264B1868FFF700FC6369AD
:100F90001B0603D5234B1868FFF7F9FB6369DB05D4
:100FA00003D5214B1868FFF7F2FB63699B0503D556
:100FB0001E4B1868FFF7EBFB63695B0503D51C4B01
:100FC0001868FFF7E4FB63691B0503D5194B186824
:100FD000FFF7DDFB6369DB0403D5174B1868FFF7E8
:100FE000D6FB63699B0403D5144B1868FFF7CFFB4E
:100FF00063695B0403D5124B1868FFF7C8FB63698C
:101000001B0403D50F4B1868FFF7C1FB0E4B636140
:1010100010BDC04600040140E8010020F00100209E
:10102000F801002000020020080200201002002029
:10103000A8010020B0010020B8010020C00100205C
:10104000C8010020D0010020F0FF0000010010B511
:10105000593104000930FFF7A3FC0023236010BDC1
:1010600010B5036804005A1CC31802605972006866
:101070005021FFF7E1F82000216010BD10B51421C8
:1010800004000068FFF7D8F8002903D120312000C0
:10109000FFF7E6FF14212068FFF7CEF8002901D002
:1010A0002021F4E7200010BD70B5040000200D00E1
:1010B000814202D00800FFF727F820606560200019
:1010C00070BD70B504000D0000681421FFF72EF804
:1010D00003001420584350214019FFF7ADF82000B9
:1010E000216070BD70B505682A00AC321368002B12
:1010F0001AD02E001424A836013B136033686868A8
:1011000063430F210360FFF7DCFF2021FFF7A8FFF7
:1011100033686868013B5C4333600F210460FFF76C
:10112000D0FF7E21FFF79CFF70BD70B505682A00D7
:10113000AC321368012B1AD02E001424A8360133C8
:1011400013603368686863430F210360FFF7B9FFDA
:101150002021FFF785FF3368686801335C43336003
:101160000F210460FFF7ADFF7E21FFF779FF70BD0F
:1011700070B50600437A04000C36002B05D000231E
:10118000C16143723000FFF737FE3000FFF704FE05
:101190000125002804D03000FFF728FE65720025E5
:1011A000280070BDF0B500278FB005AD04000C22FB
:1011B000390009A805976F6001F08CFF01236B725D
:1011C0002B726B46384EEF61EE602F6200940195F2
:1011D00002940393049564212800FFF7C9FF0028B7
:1011E000F9D12069FFF71EFD6069FFF71BFDA369B8
:1011F00068461A68596801238B409361A26AE369C3
:10120000D2699A61FFF714FD05212800FFF7B0FFAE
:101210000028F9D1A26AE369D26968469A61FFF7AA
:1012200007FD64212800FFF7BDFA0028F9D1A26A62
:10123000E369D26968469A61FFF7FAFC3221280017
:10124000FFF7B0FA0028F9D1A26AE369526968464B
:101250009A61FFF7EDFC32212800FFF7A3FA00287E
:10126000F9D1282102A8FFF7FDFC0C2102A8FFF705
:10127000F9FC062102A8FFF7F5FC012102A8FFF7FF
:10128000F1FC802102A8FFF7EDFC01212800FFF707
:101290006FFF0028F9D101233034237008A8EE60D5
:1012A000FFF784FD0FB0F0BDC03900088022164B57
:1012B000520219680A431A601A689203FCD5F02199
:1012C0005A688A435A605A6810490A4003215A6092
:1012D0005A688A43110002220A435A605A680C492C
:1012E0001140802252030A435A60802259685202F8
:1012F0000A435A608022196852040A431A601A6825
:101300009201FCD57047C04600100240FFF8FFFF75
:10131000FFFFC3FFF8B50123354E364A3168364C1E
:10132000194232D1354D36492F681F4204D1354F0D
:101330002B600F6004274F6080235569DB022B432D
:1013400053610B68304D1F68AC462F408025AD00BF
:101350003D431D601F6A2D4D3D4080277F022F4376
:101360001F626746DD683D40DD60294B6160236098
:10137000012300215B4223810233A372A381E08118
:10138000218264612183E46133600223D1690B43CC
:101390007021D36123689A698A43110060220A434D
:1013A0009A61082299690A439A61802219680A435E
:1013B0001A60012219680A431A60B723228A9B0027
:1013C0009A4213D02382134A636913491A811A6817
:1013D000DD69D162FA212A89188B89005043FEF712
:1013E0002FFFA97A02002868FFF71AFD2000F8BD38
:1013F0003401002000100240380100205801002074
:101400005C01002000040048FFFCFFFFFFFFF0FF2D
:10141000000400401280FFFF1280000010B504009D
:101420005030FFF796FC20004030FFF792FC200080
:101430003030FFF78EFC20002030FFF78AFC2000C0
:101440001030FFF786FC2000FFF783FC200010BD62
:1014500070B515000C1A04D001002200280001F01C
:1014600026FE281970BD0300F0B5093387B001933B
:10147000036816000293029A019B05009A18037AEA
:101480000C00002B27D013291CD814277F1A7F08A3
:10149000D7197B18100039000393FFF781FA31192F
:1014A0003A003000FFF7D4FF0299019B143159181C
:1014B0000398FFF775FA286814305021FEF7BCFE38
:1014C000296016E008001438400830180100143173
:1014D000FFF7BEFFEFE75021029BC91A33190293B1
:1014E000A1420BD919003000FFF7B2FF2B681C197D
:1014F0002C60002328002B7207B0F0BD2700711864
:101500003000FFF7A5FF2B68503FFF18E41B36198A
:101510003000019A5036502F04D93100FFF798FF60
:10152000503FF5E70299FFF793FF2B68F818C4E7DF
:1015300030B5050089B00A0005A8104901F0D6FEB3
:1015400005A901A8FFF7B0FD6C68019B9C4207D973
:10155000E41A013C04D320212800FFF781FDF8E7BD
:1015600005A903A8FFF7A0FD0399049A2800FFF737
:101570007AFF002328006B6009B030BDCB3B000828
:1015800070B504000D00092908DC0021FFF7D0FF29
:1015900006000A212800FEF739FF3000FFF7C8FFD8
:1015A000200070BD73B504008C30FFF7F5FB2300FD
:1015B000A4331E782100320042401A701423220006
:1015C000B831096805004B436068BC32036011689C
:1015D000AE420AD0FFF775FD2200B4342368A6326C
:1015E0005B00995AFFF7CCFF73BDFFF76AFD04005B
:1015F00004496846FFF758FD0099019A2000FFF75B
:1016000032FFF1E7C83B00080423F7B504000A25C0
:1016100040680360A36F1B6819681B688902890F03
:1016200069431B031B0FC918FFF7AAFF062367684E
:101630003D4E3B6031006846FFF736FD019A009948
:101640003800FFF710FF072360680360A36F1B6873
:1016500019681B684904490F69431B051B0FC9180A
:10166000FFF78EFF0923676831003B606846FFF78C
:101670001BFD019A00993800FFF7F5FE60680560D0
:10168000A36F1B6819681B684906490F69431B074C
:101690001B0FC918FFF774FF182360680360A36F5E
:1016A0001B6859685B688906890F69431B071B0F14
:1016B000C918FFF765FF1A2367681C4E3B603100AD
:1016C0006846FFF7F1FC019A00993800FFF7CBFE5E
:1016D0001B2360680360A36F1B6859685B68C904BB
:1016E000C90F69431B051B0FC918FFF749FF1D23CD
:1016F000676831003B606846FFF7D6FC0099019AA5
:101700003800FFF7B0FE1E2360680360A36F1A68FD
:10171000536851681B021B0F5D430903090F6918C9
:10172000FFF72EFFF7BDC046C43B0008C63B0008CC
:10173000002370B583608B6804000D00002B05D07A
:1017400002229847EB68E360AB68A360200070BD9D
:10175000002370B583608B6804000D00002B05D05A
:1017600002229847EB68E360AB68A360200070BD7D
:1017700070B505000C00FFF7DBFF280021001030DA
:101780001031FFF7D5FF2800210020302031FFF76E
:10179000CFFF2800210030303031FFF7C9FF28008B
:1017A000210040304031FFF7D3FF280021005030A6
:1017B0005031FFF7CDFF280070BD002370B5836066
:1017C0008B6804000D00002B05D002229847EB68BF
:1017D000E360AB68A360200070BD002370B5836038
:1017E0008B6804000D00002B05D002229847EB689F
:1017F000E360AB68A360200070BD002370B5836018
:101800008B6804000D00002B05D002229847EB687E
:10181000E360AB68A360200070BD0000F0B5002558
:10182000264C8022A54402AB1D80254B3AAC0833E0
:101830003A93244B9200A362489349AB1D701E2338
:10184000E2626263FF3302AA9B181D708F235B0064
:101850009B181D704AAB1D7001231B491B485B423E
:101860006560A5602573216323832061E56125847C
:10187000656262619580FFF79BF844AE736803A8C8
:101880005A0033689A189A420ED01978012907D85D
:101890005F7861180F760127197847540233F2E711
:1018A00019880B4FB942F9D1489332689A4211D145
:1018B000E5610836012D1DD00125DFE734FAFFFF71
:1018C000D04B0008006800080064000800200240B7
:1018D000FFFF0000716849005218934201D100F0E7
:1018E000EBFC02AB9F1DE561390003A8FEF7F3FE98
:1018F000B842DED1E369DA00A218D16A926A4900DF
:101900005218A16B91420CD1B82202A9D2005218F0
:10191000D318EA4A9B1801221A700023E361449B02
:10192000489302AB9D1D290003A8FEF7D4FE0600D4
:10193000A84201D000F0C6FC022240A9606901F073
:10194000ADFB00238F2102AA49005218137042AB4D
:101950001B78002B13D1E369002B10D0E36AD84821
:101960005A00449B19009A180B008A4201D000F0DB
:10197000B6FC13009B1A5A1E934142AA137002AB85
:101980000233FF331B78002B16D1E369012B13D0F0
:10199000636B469A5B00CA48D3181100934204D087
:1019A0000232971E3F888742F7D05B1A5A1E934136
:1019B00002AA0232FF32137002ABDF1CFF3739007C
:1019C00042A8FEF7B6FEB84205D01E2302AAFF3396
:1019D0009B1803221A708023226911690B4313613B
:1019E000AE4202D0002302AA1380200006ACFFF70B
:1019F00003FA0E22B349200001F050FB0122B24B42
:101A00001968114203D1B149B1481A6011C10123CB
:101A1000B04C626A13436362636A9B07FCD5236A16
:101A2000AA4F1B0446D48023E2695B051343E3619C
:101A30008023A94A5B0011680B431360226AA74BFD
:101A40001A4080239B00134323628023226A1B02D7
:101A500013432362CA233D686E1DF377773BF37708
:101A6000EA682D331343EB60EB685B06FCD52B690A
:101A70009B4A05201A40DE23DB031343AD222B6172
:101A80002B695200DB0BDB03134300222B61110097
:101A9000FEF7B2FE012328601A0019001420FEF799
:101AA000D6FE80226860EB689343EB60FE23F377F9
:101AB0009A3BF3778B480497FFF72CFC0023012116
:101AC000894A63AF6392894A05907A60884ABB600D
:101AD0001068FB603B747B74FB61FB62FB63FB641F
:101AE000FB65844B084204D18348116018600D20C7
:101AF00058608022616912030A4362611A687F4D4F
:101B00001068012628401060D16864A8294000258B
:101B1000D1607B667FAB1D70F62302AAFF339B1852
:101B20001D70BD66FE66FFF767F9822202AB920068
:101B30009B181D70724B734A8093734B82958193EF
:101B400002AB9B181D70714B8395196887958B9517
:101B50008F95939597956E4A314204D166491E60E0
:101B600011600F21516080230025012661691B034C
:101B70000B436361116881A80B689B009B080B6095
:101B8000CB689B009B08CB609CAB1D70614B99920E
:101B900002AA9B181D709A959B96FFF72DF99F221C
:101BA00002AB92009B181D705B4B5C4A9D935C4B93
:101BB0009F959E9302AB9B185A4A1D701168A09581
:101BC000A495A895AC95B095B495574B314204D1E6
:101BD0004949166019600E2159608022616912031B
:101BE0000A4362611A68514D1068BAAE284010600D
:101BF000D1689EA82940D160B69301230025B893EF
:101C0000B9AB1D704A4B02AA9B181D70B795FFF720
:101C1000F3F80599474B0091049908330191464820
:101C20004649BA9302ABC918C0187560B5603573E0
:101C3000356175613576FEF7B3FE0122404B1B68B6
:101C4000134200D0BCE03F4915000B6813403E4AE8
:101C500004D19020C005106053600D60802361693D
:101C60009B020B43032101206361126813688B43BD
:101C700003431360D3688B43D360344B344A1968F1
:101C8000014205D19021C9051160022118605160FF
:101C9000802361699B023020194361611021126821
:101CA0001568854329431160D1688143D1600122C1
:101CB00028490868104255D14EE0C04640FBFFFF5E
:101CC000FFFF0000A839000864010020680100201F
:101CD000002800400010024000700040FFFCFFFFA1
:101CE000FFFF80FFDE030000E0390008003A000833
:101CF000280100202C01002000080048FFFFFFF30E
:101D00000C3A0008090200002C3A00081C010020CF
:101D10002001002069020000383A00087D0200001E
:101D2000583A00081001002014010020FFFFFFCFE7
:101D3000DD020000DC4B0008F9020000490300004E
:101D4000B00000200401002008010020F80000205D
:101D5000FC000020EC0000209025F748ED05056010
:101D600042600A6062690C2113430422F2486361F5
:101D700003681D688D432A431A60DA688A43EF4975
:101D8000DA60EF4B08311960EE4998611961EE494C
:101D900002A859619021C905D961EC4900220918AE
:101DA0001962EB495A605962EA499A6099621900CE
:101DB0001A735A735A633031E74B0A7001321A6052
:101DC0000121E64AE64B1068084205D19020C00583
:101DD00018600320116058608022616992020A43F2
:101DE000C021626140221B681868884302431A6060
:101DF000DA688A43DA60DB4ABF391068DA4B084296
:101E000005D19020C0051860042011605860802220
:101E1000616992020A43626180221B68D348196893
:101E2000520001400A4301211A60DA680240DA6078
:101E3000CF4AD04B1068084205D19020C0051860E9
:101E40000520116058608022616992020A43802156
:101E500062611B68C8481A68C900024011431960D2
:101E60000121DA680240DA60C44AC54B10680842B2
:101E700005D19020C00518600620116058608022AE
:101E8000616992020A43802162611B68BD481A6839
:101E90004901024011431960DA68A94C0240DA6036
:101EA0002000FFF77FF9237B002B21D1013323731F
:101EB000B54BDA686260002A00D094609A68DC60F2
:101EC000002A00D19C60022101225961AF4B1868A1
:101ED00090431860AE485860002098601C68043039
:101EE0002043186018680143196019680A431A6092
:101EF00037670027924B0EA9F36680AB73679DABE3
:101F0000B36702ABF367009B0AA8DA93019BDD97E6
:101F1000DB93F6ABDC939F4B0E9611939E4B2EAD4D
:101F20001093FFF705FC9D4B16A919939C4B12A823
:101F300018931696FFF7FCFB9A4B1EA921939A4B18
:101F40001AA820931E96FFF7F3FB984B26A9299316
:101F5000974B22A828932696FFF7EAFB954B29007A
:101F60003193954B2AA830932E96FFF7F1FB934BB4
:101F700034AC4E93924B4BA920004D934B96FFF7F8
:101F8000E7FB0AA9DEA8FFF7D3FB12A9E2A8FFF737
:101F9000CFFB1AA9E6A8FFF7CBFB22A9EAA8FFF717
:101FA000C7FB2AA9EEA8FFF7D3FB2100F2A8FFF791
:101FB000CFFB2000FEF7CDFE4BA8FEF7CAFE2AA8F5
:101FC000FEF7C7FE2800FEF7C4FE22A8FEF7C1FEFA
:101FD00026A8FEF7BEFE1AA8FEF7BBFE1EA8FEF757
:101FE000B8FE12A8FEF7B5FE16A8FEF7B2FE0AA8C4
:101FF000FEF7AFFE0EA8FEF7ACFEDEA94BA8FFF77A
:10200000B7FB704B3496E3606F4B21002800A36050
:10201000FFF7D3FBDB9B4BA900936C4BF8A8F6931F
:10202000BEABF793FFF7A4FBFFA829004430FFF7EE
:10203000C4FB009AFFAB54331A602800FEF789FEF8
:102040002000FEF786FE4BA8FFF7E8F9DEA94BA8B3
:10205000FFF78EFB5E4B2AA92D935E4B26A82C938F
:102060002A96FFF7AAFB09235B4A2E9334935B4B16
:102070006A6063605A4A5B4B309636966A61636168
:10208000594A5A4B2A612361FFAA594B58321360AF
:10209000FFAB5C33BEAAFFA81A604BA96030FFF704
:1020A00067FBFFA826A9C030FFF787FB2A00FFAB1C
:1020B000D03303CA03C3FFA830A9D830FFF77DFB94
:1020C0002200FFABE83303CA03C3FFA836A9F030F0
:1020D000FFF773FB85239B00F7500433F75036A8B6
:1020E000FEF737FE30A8FEF734FE26A8FEF731FED5
:1020F0002AA8FEF72EFE4BA8FFF790F9DEA94BA801
:10210000FFF736FB3B4B2AA92D933B4B26A82C937C
:102110002A96FFF752FB394B3496E360384B210087
:102120002800A360FFF769FBDB9B364A00938723F7
:102130009B00F25068E0C046F0000020E84B000829
:10214000B400002008010020FC000020F90200007B
:10215000D03B0008D0430008B0000020A4000020BD
:10216000A8000020980000209C000020FFFCFFFF3A
:102170008C00002090000020FFF3FFFF8000002073
:1021800084000020FFCFFFFF4002002010E000E0AD
:10219000BF5D0000752300083D040008AD23000862
:1021A00053040008E5230008690400083D230008E3
:1021B0007F040008712400089504000839240008F1
:1021C000AB040008C1040008D1040008643A000808
:1021D000E7040008F5040008F44B0008FE4B000873
:1021E0000B050008310500081B0500083305000831
:1021F000CC39000849050008590500086F0500089A
:1022000085050008783A00083A48BEAA0433F2501F
:1022100002AB4BA9C018FFF7ABFA374802AB26A9AF
:10222000C018FFF7CAFA354802AB2900C018FFF7FB
:10223000E4FAA923009A9B00F2500833F7500433C4
:10224000F7502F4A0433F7540C3BF250AF22B12021
:1022500010339200F750B750C83AF250C00002ABAA
:10226000C018FEF7C9FDB02301229B00F7541033BC
:10227000F7500433F25009320433F2500433F75468
:102280002800FEF766FD2000FEF763FD26A8FEF796
:1022900060FD2AA8FEF75DFD4BA8FFF7BFF83000F0
:1022A000FEF7AAFDDC9803681B689847F36E30338D
:1022B0001B78BB421CD1FEE72B0001222033E254E5
:1022C000FFF7F7FAB82302AADB009B18E2699B1814
:1022D0000C4A9B1801221A700523FFF733FB0231C9
:1022E0008F1E3F88874201D1FFF73EFBFFF742FB7D
:1022F00030BFFDE704050000640500007405000020
:10230000C039000840FBFFFF73B56B4604001A009C
:1023100060CC60C20A0030CA30C005CB05C173BDB5
:1023200070B505000C00FFF7EFFFAB68A268AA606C
:10233000A360E268EB68EA60E36070BD30B500233B
:10234000040089B0080069460293FFF7E9FF23689B
:1023500069469C6F04A82368DD68FFF72EFA04A97C
:102360002000A84704A8FEF7F4FC6846FEF7F1FC3D
:1023700009B030BD30B50023040089B008006946BB
:102380000293FFF7CDFF236869461C6F04A82368FA
:102390009D68FFF712FA04A92000A84704A8FEF7D9
:1023A000D8FC6846FEF7D5FC09B030BD30B5002337
:1023B000040089B0080069460293FFF7B1FF236863
:1023C00069465C6F04A823689D68FFF7F6F904A9C5
:1023D0002000A84704A8FEF7BCFC6846FEF7B9FC3D
:1023E00009B030BD30B50023040089B0080069464B
:1023F0000293FFF795FF236869469C6F04A8236842
:102400009D68FFF7DAF904A92000A84704A8FEF7A1
:10241000A0FC6846FEF79DFC09B030BD70B5050014
:102420000C00FFF771FFAB68A268AA60A360E268C6
:10243000EB68EA60E36070BD30B50023040089B04A
:10244000080069460293FFF7E9FF236869465C6F5D
:1024500004A823681D69FFF7C0F904A92000A84754
:1024600004A8FEF776FC6846FEF773FC09B030BDA1
:1024700030B50023040089B0080069460293FFF7D5
:10248000CDFF236869461C6F04A823681D69FFF708
:10249000A4F904A92000A84704A8FEF75AFC68463E
:1024A000FEF757FC09B030BD836810B5002B01D191
:1024B00000F0C5FDC368984710BD30B50025040085
:1024C00085B0694608300295FFF7EEFF6846FEF7D3
:1024D00040FC2000694618300295FFF7E5FF68468A
:1024E000FEF737FC2000694638300295FFF7DCFF25
:1024F0006846FEF72EFC05B030BD30B5002504005F
:1025000085B0694628300295FFF7CEFF6846FEF792
:1025100020FC2000694608300295FFF7C5FF684699
:10252000FEF717FC2000694618300295FFF7BCFF44
:102530006846FEF70EFC2000694638300295FFF72A
:10254000B3FF6846FEF705FC05B030BD30B5002589
:10255000040085B0694608300295FFF7A5FF68467C
:10256000FEF7F7FB2000694618300295FFF79CFF45
:102570006846FEF7EEFB2000694628300295FFF71B
:1025800093FF6846FEF7E5FB200069463830029568
:10259000FFF78AFF6846FEF7DCFB05B030BD0000A0
:1025A000F0B504006E4B89B007936E4B04A90490FC
:1025B00008300693FFF778FF04A8FEF7CAFB200057
:1025C000694B04A90793694B183006930494FFF7ED
:1025D0006BFF04A8FEF7BDFB2000654B04A9079321
:1025E000644B283006930494FFF75EFF04A8FEF7BF
:1025F000B0FB2000604B04A90793604B3830069372
:102600000494FFF751FF04A8FEF7A3FB23000A255B
:1026100088331A680E26136851681A68186892027F
:10262000920F6A430003000F1218CA801A681868D4
:102630005204520F6A430005000F12180A815A68AB
:102640001204520F8A815A6858689206920F6A43A0
:102650000007000F12188A805A685868D204D20FF7
:102660006A430005000F12184A805A685B6812021C
:10267000120F1B03180F13006B431B180B80320043
:1026800004A800F00BFD2300A633320004A91800B3
:10269000019300F003FD6068FEF7D8FC0423606836
:1026A00003602300AC331988FEF76AFF06236668CF
:1026B000334F3360390002A8FEF7F6FC039A029903
:1026C0003000FEF7D0FE0723606803602300AE33BE
:1026D0001988FEF755FF092366683900336002A8A0
:1026E000FEF7E2FC039A02993000FEF7BCFE2300DD
:1026F0006068B03305601988FEF742FF18236068F0
:1027000003602300AA331988FEF73AFF1A2365688D
:102710001C4E2B60310002A8FEF7C6FC039A0299FA
:102720002800FEF7A0FE1B23606803602300A83387
:102730001988FEF725FF1D23656831002B6002A86C
:10274000FEF7B2FC0299039A2800FEF78CFE1E23C6
:1027500060680360019B1988FEF712FF09B0F0BDA5
:102760009D050008B3050008C9050008DF0500083D
:10277000A9080008F50500082F2800080B06000826
:10278000C43B0008C63B00081FB504001B4B69464C
:1027900003931B4B009028300293FFF785FE684699
:1027A000FEF7D7FA2000174B69460393164B083003
:1027B00002930094FFF778FE6846FEF7CAFA2000FD
:1027C000124B69460393124B183002930094FFF7A3
:1027D0006BFE6846FEF7BDFA20000E4B6946039378
:1027E0000D4B383002930094FFF75EFE6846FEF70B
:1027F000B0FA6068FEF72AFC1FBDC046210600083B
:1028000023060008390600083B06000851060008A8
:10281000530600083B28000869060008836810B5C5
:10282000002B01D100F00BFCC368984710BD10B518
:1028300000686830FFF7F2FF10BD10B5006868301F
:10284000FFF7ECFF10BD006818220300AC331B68D3
:1028500010B55343C0188030FFF7E0FF10BD10B52E
:1028600000686830FFF7DAFF10BD1FB50400684646
:10287000FEF7A3FF21006846FFF752FD6846FEF70A
:1028800068FA200004B010BD10B54430FFF7EDFF2A
:1028900010BD10B53430FFF7E8FF10BD10B524307F
:1028A000FFF7E3FF10BD10B51430FFF7DEFF10BDDA
:1028B00010B54430FFF7D9FF10BD10B53430FFF725
:1028C000D4FF10BD10B52430FFF7CFFF10BD10B5F9
:1028D0001430FFF7CAFF10BD10B54430FFF7C5FF35
:1028E00010BD10B53430FFF7C0FF10BD10B5243057
:1028F000FFF7BBFF10BD10B51430FFF7B6FF10BDDA
:102900001FB504006846FEF768FF21006846FFF720
:1029100085FD6846FEF71DFA200004B010BD10B515
:102920005430FFF7EDFF10BD10B55430FFF7E8FF4E
:1029300010BD10B55430FFF7E3FF10BD1FB50028E0
:102940000BD06846FEF739FF029B002B02D0684689
:10295000FFF764FF6846FEF7FCF905B000BD07B558
:1029600083680191002B01D100F069FBC36801A9C4
:10297000984707BDF0B5040085B0406EFEF7D4F966
:10298000002802D1A36E002B34D0606EFEF7CCF984
:10299000051E31D12600637C70360700002B00D164
:1029A0003778210068462431FEF707FF38002700FA
:1029B0006946FFF7C3FF6846FEF7CBF9637C7137C2
:1029C000002B05D13578002D02D001253B785D40E4
:1029D000210068463431FEF7F0FE69462800FFF713
:1029E000ADFF6846FEF7B5F900230122A366E26653
:1029F00033703B7005B0F0BDA36E5D1CA566092D5C
:102A000024D9220070321378002B10D12100013319
:102A10001370657C14315D406846FEF7CEFE2800D9
:102A20006946FFF78BFF6846FEF793F9E2E7234B11
:102A30009D420BD9220071321378002B06D1210060
:102A400001331370657C44315D40E5E7E36D002B95
:102A5000D0D0FA26B600B542CCD9FA23DB009D428D
:102A60000BD8C8212800FDF7E7FB0029C2D12000C0
:102A700001215430FFF773FFBCE7114B64219D42E5
:102A8000F0D9FA2332211B019D42EBD919212800EC
:102A9000FDF7D2FB0B4B9D42E7D90029AAD12000BC
:102AA000E16E5430FFF75BFF3100A06EFDF7C4FB11
:102AB00000299FD1E36E0133E3669BE7E703000043
:102AC000B80B00008813000008B4024B9C46043881
:102AD00008BC604775290008F0B5040085B0406E59
:102AE000FEF722F9002802D1A36E002B34D0606ECD
:102AF000FEF71AF9051E31D12600637C70360700F7
:102B0000002B00D13778210068462431FEF755FEAE
:102B1000380027006946FFF711FF6846FEF719F9EC
:102B2000637C7137002B05D13578002D02D001254B
:102B30003B785D40210068463431FEF73EFE694631
:102B40002800FFF7FBFE6846FEF703F90023012289
:102B5000A366E26633703B7005B0F0BDA36E5D1CEA
:102B6000A566092D24D9220070321378002B10D1CC
:102B7000210001331370657C14315D406846FEF717
:102B80001CFE28006946FFF7D9FE6846FEF7E1F80B
:102B9000E2E7234B9D420BD9220071321378002BC0
:102BA00006D1210001331370657C44315D40E5E7B7
:102BB000E36D002BD0D0FA26B600B542CCD9FA236B
:102BC000DB009D420BD8C8212800FDF735FB00290A
:102BD000C2D1200001215430FFF7C1FEBCE7114BE8
:102BE00064219D42F0D9FA2332211B019D42EBD989
:102BF00019212800FDF720FB0B4B9D42E7D9002946
:102C0000AAD12000E16E5430FFF7A9FE3100A06E7A
:102C1000FDF712FB00299FD1E36E0133E3669BE7CA
:102C2000E7030000B80B00008813000008B4024B53
:102C30009C46043808BC6047D92A0008F0B5040057
:102C400085B0406EFEF770F8002802D1A36E002B0D
:102C500034D0606EFEF768F8051E31D12600637C23
:102C600070360700002B00D13778210068462431E8
:102C7000FEF7A3FD380027006946FFF75FFE6846B0
:102C8000FEF767F8637C7137002B05D13578002D8E
:102C900002D001253B785D40210068463431FEF7C3
:102CA0008CFD69462800FFF749FE6846FEF751F89B
:102CB00000230122A366E26633703B7005B0F0BDCD
:102CC000A36E5D1CA566092D24D9220070321378ED
:102CD000002B10D1210001331370657C14315D404D
:102CE0006846FEF76AFD28006946FFF727FE68463A
:102CF000FEF72FF8E2E7234B9D420BD922007132F9
:102D00001378002B06D1210001331370657C443108
:102D10005D40E5E7E36D002BD0D0FA26B600B54262
:102D2000CCD9FA23DB009D420BD8C8212800FDF73F
:102D300083FA0029C2D1200001215430FFF70FFE91
:102D4000BCE7114B64219D42F0D9FA2332211B01CB
:102D50009D42EBD919212800FDF76EFA0B4B9D42DD
:102D6000E7D90029AAD12000E16E5430FFF7F7FD22
:102D70003100A06EFDF760FA00299FD1E36E0133A8
:102D8000E3669BE7E7030000B80B00008813000030
:102D900008B4024B9C46043808BC60473D2C000830
:102DA000F8B50300060018240200AC33A8361B68EF
:102DB000316878325B1A5C431419270030370500FC
:102DC000B74200D9370000226B681A606868BC42BD
:102DD00007D021686268FEF746FBFEF74FF918340A
:102DE000F4E7142332680F2153430360FEF769F9B7
:102DF0007E21FEF735F9F8BD1FB504001B4B69466F
:102E000003931B4B009008300293FFF74DFB68467D
:102E1000FDF79FFF2000174B69460393164B1830B0
:102E200002930094FFF740FB6846FDF792FF2000F5
:102E3000124B69460393124B283002930094FFF71C
:102E400033FB6846FDF785FF20000E4B6946039370
:102E50000D4B383002930094FFF726FB6846FDF7D0
:102E600078FF2000FFF79CFF1FBDC046E51000085B
:102E70007F0600082B110008950600084728000867
:102E8000AB0600085F280008C106000800230121E6
:102E900010B5394A136053609360D3601361516178
:102EA000364A1068884310603548506004209360AB
:102EB00014682043022410601068204310601068DA
:102EC0000143116019212F4A136014712E4A1360B7
:102ED00011712E4A0919136011712D4A0E391360B0
:102EE00011712C4A0331136011712B4A0739136099
:102EF00011712A4A013113601171294A136011714D
:102F0000284A013113601171274A13601171274A51
:102F1000063913601171264A13601171254A013177
:102F200013601171244A13601171072223490B6049
:102F30000A7123490B600A7122490B600A71224908
:102F40000B600A7121490B600A7121490B600A71FB
:102F500020490B600A7120490B600A711F490B6000
:102F60000A711F490B600A711E490B600A711E49E4
:102F70000B600A7110BDC0464002002010E000E066
:102F80007FBB000018020020200200203802002031
:102F9000280200203002002070010020780100206B
:102FA000800100208801002090010020980100206D
:102FB000A0010020D8010020E0010020E80100204D
:102FC000F0010020F801002000020020080200208B
:102FD00010020020A8010020B0010020B80100204C
:102FE000C0010020C8010020D00100200D48854606
:102FF0000D480E490E4A002302E0D458C450043351
:10300000C4188C42F9D30B4A0B4C002301E0136027
:103010000432A242FBD3FEF749F900F01BF8FEF799
:10302000FDFBFEE7001000200000002064000020EF
:10303000484C00086400002068020020FEE710B53C
:1030400000F000F810B5062000F030F9012000F083
:103050009DFC000070B500260C4D0D4C641BA410A7
:10306000A64209D1002600F093FC0A4D0A4C641BCD
:10307000A410A64205D170BDB300EB5898470136A5
:10308000EEE7B300EB5898470136F2E73C4C0008F6
:103090003C4C00083C4C0008444C0008002310B590
:1030A0009A4200D110BDCC5CC4540133F8E710B58E
:1030B000884202D98B18984203D3002307E08B5C27
:1030C0008354013AFBD210BDCC5CC45401339A4204
:1030D000FAD1F8E703001218934200D17047197033
:1030E0000133F9E770B50500002910D00C1F2368E3
:1030F000002B00DAE418280000F018F91D4A1368C4
:10310000002B05D163601460280000F010F970BD39
:10311000A34209D9216860188342F3D118685B681B
:1031200041182160EEE713005A68002A01D0A2423C
:10313000F9D919685818A0420BD1206809185818F5
:1031400019608242E0D110685268411819605A60D3
:10315000DAE7A04202D90C232B60D5E7216860187A
:10316000824203D1106852684118216062605C603D
:10317000CAE7C04658020020032370B5CD1C9D430A
:10318000083506000C2D1ED20C25A9421DD8300092
:1031900000F0CCF8254A14682100002919D1244CEC
:1031A0002368002B03D1300000F044F82060290090
:1031B000300000F03FF8431C2BD10C23300033606B
:1031C00000F0B5F803E0002DDFDA0C2333600020B7
:1031D00070BD0B685B1B19D40B2B03D90B60CC188B
:1031E000256003E04B688C420DD11360300000F085
:1031F0009EF8200007220B30231D9043C31AE7D00E
:103200005A42E250E4E763600C00EFE70C004968C3
:10321000C3E70323C41C9C43A042E1D0211A300021
:1032200000F008F8431CDBD1C7E7C0465802002075
:103230005C020020002370B5064C050008002360E6
:1032400000F096FB431C03D12368002B00D02B60B9
:1032500070BDC0466402002070B504000D001F2937
:1032600004D9162303600120404270BD436C002B3B
:1032700004D08A009B181A68002A08D1200000F0A8
:1032800031F82A000100200000F01AF8EDE70020D4
:10329000012AEAD0511C03D1162301302360E4E750
:1032A000002428001C6090472000DEE710B5034B87
:1032B00001001868FFF7D0FF10BDC04600000020D5
:1032C000002370B5064C050008001100236000F0D3
:1032D00047FB431C03D12368002B00D02B6070BD3B
:1032E0006402002010B500F033FB10BD0EB400B531
:1032F0000B499CB01DAB02900690079104910948C0
:10330000094904CB0591006802A9019300F072F805
:103310000023029A13701CB008BC03B01847C046C3
:10332000FFFFFF7F000000200802FFFF704770478B
:10333000F0B58E6885B007000C00039201939E42A1
:103340003CD890238A89DB001A4234D003250969CE
:1033500023685B1A0293636902985D43EB0F5D1962
:10336000019B6D1001331B18AB4200D91D005305A2
:1033700032D529003800FFF7FFFE061E09D10C23C5
:103380003B6040230120A28940421343A38105B042
:10339000F0BD029A2169FFF781FEA389144A1A4001
:1033A00080231343A381029B2661F6182660656182
:1033B000019EED1AA560019B9E4200D9019E32003C
:1033C00003992068FFF773FEA36800209B1BA3608E
:1033D00023689E192660DAE72A00380000F089FA8F
:1033E000061EE0D121693800FFF77CFEC7E7C04622
:1033F0007FFBFFFFF0B5A1B003901D008B890F008C
:1034000016001B0611D50B69002B0ED14021FFF7CA
:10341000B3FE38603861002805D10C23039A0138C7
:10342000136021B0F0BD40237B61002308AC6361D1
:10343000203363761033A376079535002B78002B65
:1034400001D0252B46D1AB1B05930CD0320039009F
:103450000398FFF76DFF431C00D1AEE06269059B46
:103460009446634463612B78002B00D1A5E00122D0
:1034700000235242626004A9543252186E1C236029
:10348000E360A3601370A36531780522534800F010
:1034900025FA751C00281FD12268D30604D55323B2
:1034A00004A95B1820211970130704D5532304A91C
:1034B0005B182B21197033782A2B16D03500002188
:1034C0000A20E3682A786E1C303A092A4ED900296E
:1034D00018D010E00135B1E7404B2268C01A012333
:1034E0008340134323602E00CEE7079B191D1B6802
:1034F0000791002B01DB0B9304E05B42E3600223A6
:10350000134323602B782E2B0AD16B782A2B35D1CD
:10351000079B02351A1D1B680792002B2BDB0993B2
:103520002F4E29780322300000F0D8F9002806D069
:103530004023801B83402268013513432360297890
:10354000062228486E1C217600F0C8F900283CD0DD
:10355000254B002B25D10722079B073393430833C4
:1035600007936369049A9B18636166E743430121EB
:103570009B183500A6E701235B42D0E700230A2011
:103580001A000135636029786E1C3039092903D986
:10359000002BC5D00992C3E74243012352183500DE
:1035A000F1E707AB00933A00104B2100039800E0CD
:1035B00000BF0490049B0133D3D1BB890D985B06F7
:1035C00000D42EE7012040422BE707AB00933A00DE
:1035D000064B2100039800F079F8EAE7084C000850
:1035E0000E4C0008124C00080000000031330008A7
:1035F000F7B5150001938A680B6900900C0093429F
:1036000000DA130022002B6043321278002A01D026
:1036100001332B6023689B0602D52B6802332B6095
:10362000062723681F4027D0230043331B785A1EE8
:1036300093412268920630D42200019943320098C7
:10364000089EB047431C25D0062320682A68E168FD
:1036500003400025042B03D18D1AEB43DB171D40DB
:10366000A3682269934201DD9B1AED180027BD4231
:1036700020D1002010E00137E3682A689B1ABB4282
:10368000D2DD22000123193201990098089EB0472B
:10369000431CF0D101204042FEBD3020E1184331EF
:1036A000087021005A1C45310978A21843320233B0
:1036B0001170C1E7220001231A3201990098089E77
:1036C000B047431CE6D00137D1E70000F0B589B020
:1036D00004920A0043320593039002920A7E0C0082
:1036E0000E9B6E2A00D186E01FD8632A33D008D8FB
:1036F000002A00D18CE0582A4DD0250042352A708E
:1037000030E0642A01D0692AF7D1196825680A1DBA
:10371000280629D508681A60002803DA2D23029AA2
:10372000404213706B4E0A274FE0732A74D008D8BA
:103730006F2A1FD0702AE0D1202209680A43226034
:1037400003E0752A16D0782AD7D122007821453295
:103750001170614E22E025001A684235111D196072
:1037600013682B70012365E008681A606906D3D5D9
:1037700000B2D1E719682568081D186008682E0690
:1037800005D5544E08276F2A1BD00A2719E06D066D
:10379000F7D580B2F5E745314E4E0A7018682268B9
:1037A000011D00681960150621D5D30702D5202315
:1037B0001A4322601027002803D1202322689A434D
:1037C00022602300002243331A706368A360002B39
:1037D00058DB0422216891432160002854D1029DC6
:1037E000002B5AD02500337842352B7055E0550612
:1037F000DBD580B2D9E71A680D68101D49691860D9
:1038000013682E0601D5196002E06D06FBD51980FC
:103810000023029D23614FE01A68111D196015688D
:1038200000216268280000F059F8002801D0401BF0
:103830006060636823610023029A13703CE023698F
:103840002A0004990398059DA847431C3ED023688D
:103850009B0715D4079BE068984239DA180037E0D7
:1038600022000123193204990398059EB047431C96
:103870002CD00135E368079A9B1AAB42F0DCE9E7EC
:103880000025F7E70028ADD0029D3900FCF7D4FCF5
:10389000735C013D2B700028F7D1082F09D12368F4
:1038A000DB0706D563682269934202DC3023013DC1
:1038B0002B70029B5B1B2361059B07AA00932100D1
:1038C000049B0398FFF794FE431CB8D101204042AB
:1038D00009B0F0BD194C00082A4C0008C9B2821882
:1038E000904201D10020704703788B42FBD0013019
:1038F000F6E7F8B507000D001600002905D1110004
:10390000FFF73AFC04002000F8BD002A03D1FFF7BE
:10391000E9FB3400F7E700F012F82C00B042F2D2D5
:1039200031003800FFF728FC041EECD029003200DB
:10393000FFF7B4FB29003800FFF7D4FBE3E70B1FC8
:103940001B68181F002B01DA0B58C01870470000C5
:1039500058220120014B40421A6070476402002047
:1039600058220120014B40421A6070476402002037
:10397000044A1368002B00D1034B1818106018007C
:103980007047C0466002002068020020FEE7C04683
:10399000F8B5C046F8BC08BC9E467047F8B5C046AE
:0839A000F8BC08BC9E4670470C
:1039A80014000100010005000000000001000000F3
:1039B80000000000000000001904000800000000DA
:1039C80000000000F92D00089B0500084D2500089F
:1039D8000000000000000000A72800089D2800083B
:1039E80093280008892800081F2900083D2C000892
:1039F800FCFFFFFF00000000912D00080000000000
:103A080000000000CF280008C5280008BB280008CF
:103A1800B128000829290008D92A0008FCFFFFFF5F
:103A2800000000002D2C000800000000000000002D
:103A3800F7280008ED280008E3280008D92800081E
:103A48003329000875290008FCFFFFFF000000006B
:103A5800C92A0008000000000000000089270008AB
:103A680009160008FB240008000000000000000000
:103A7800A1250008A5150008BB24000800000000C7
:103A88000100000002000000030000000400000024
:103A98000500000006000000070000000800000004
:103AA800090000000A0000000B0000000C000000E4
:103AB8000D0000000E0000000F00000010000000C4
:103AC8001100000012000000130000002800000090
:103AD800290000002A0000002B0000002C00000034
:103AE8002D0000002E0000002F0000003000000014
:103AF80031000000320000003300000034000000F4
:103B080035000000360000003700000038000000D3
:103B1800390000003A0000003B00000014000000DB
:103B28001500000016000000170000001800000033
:103B3800190000001A0000001B0000001C00000013
:103B48001D0000001E0000001F00000020000000F3
:103B580021000000220000002300000024000000D3
:103B68002500000026000000270000003C0000009F
:103B78003D0000003E0000003F0000004000000043
:103B88004100000042000000430000004400000023
:103B98004500000046000000470000004800000003
:103BA800490000004A0000004B0000004C000000E3
:103BB8004D0000004E0000004F0000003A002E00AB
:103BC8002020002564001A19000078000000780001
:103BD80000007800080070000000780010006800FD
:103BE80000007800180060000000780020005800ED
:103BF80000007800280050000000780030004800DD
:103C080000007800380040000000780040003800CC
:103C180000007800480030000000780050002800BC
:103C280000007800580020000000780060001800AC
:103C3800000078006800100000007800700008009C
:103C4800000078007800000008007000000078008C
:103C5800080070000800700008007000100068007C
:103C6800080070001800600008007000200058006C
:103C7800080070002800500008007000300048005C
:103C8800080070003800400008007000400038004C
:103C9800080070004800300008007000500028003C
:103CA800080070005800200008007000600018002C
:103CB800080070006800100008007000700008001C
:103CC800080070007800000010006800000078000C
:103CD80010006800080070001000680010006800FC
:103CE80010006800180060001000680020005800EC
:103CF80010006800280050001000680030004800DC
:103D080010006800380040001000680040003800CB
:103D180010006800480030001000680050002800BB
:103D280010006800580020001000680060001800AB
:103D3800100068006800100010006800700008009B
:103D4800100068007800000018006000000078008B
:103D5800180060000800700018006000100068007B
:103D6800180060001800600018006000200058006B
:103D7800180060002800500018006000300048005B
:103D8800180060003800400018006000400038004B
:103D9800180060004800300018006000500028003B
:103DA800180060005800200018006000600018002B
:103DB800180060006800100018006000700008001B
:103DC800180060007800000020005800000078000B
:103DD80020005800080070002000580010006800FB
:103DE80020005800180060002000580020005800EB
:103DF80020005800280050002000580030004800DB
:103E080020005800380040002000580040003800CA
:103E180020005800480030002000580050002800BA
:103E280020005800580020002000580060001800AA
:103E3800200058006800100020005800700008009A
:103E4800200058007800000028005000000078008A
:103E5800280050000800700028005000100068007A
:103E6800280050001800600028005000200058006A
:103E7800280050002800500028005000300048005A
:103E8800280050003800400028005000400038004A
:103E9800280050004800300028005000500028003A
:103EA800280050005800200028005000600018002A
:103EB800280050006800100028005000700008001A
:103EC800280050007800000030004800000078000A
:103ED80030004800080070003000480010006800FA
:103EE80030004800180060003000480020005800EA
:103EF80030004800280050003000480030004800DA
:103F080030004800380040003000480040003800C9
:103F180030004800480030003000480050002800B9
:103F280030004800580020003000480060001800A9
:103F38003000480068001000300048007000080099
:103F48003000480078000000380040000000780089
:103F58003800400008007000380040001000680079
:103F68003800400018006000380040002000580069
:103F78003800400028005000380040003000480059
:103F88003800400038004000380040004000380049
:103F98003800400048003000380040005000280039
:103FA8003800400058002000380040006000180029
:103FB8003800400068001000380040007000080019
:103FC8003800400078000000400038000000780009
:103FD80040003800080070004000380010006800F9
:103FE80040003800180060004000380020005800E9
:103FF80040003800280050004000380030004800D9
:1040080040003800380040004000380040003800C8
:1040180040003800480030004000380050002800B8
:1040280040003800580020004000380060001800A8
:104038004000380068001000400038007000080098
:104048004000380078000000480030000000780088
:104058004800300008007000480030001000680078
:104068004800300018006000480030002000580068
:104078004800300028005000480030003000480058
:104088004800300038004000480030004000380048
:104098004800300048003000480030005000280038
:1040A8004800300058002000480030006000180028
:1040B8004800300068001000480030007000080018
:1040C8004800300078000000500028000000780008
:1040D80050002800080070005000280010006800F8
:1040E80050002800180060005000280020005800E8
:1040F80050002800280050005000280030004800D8
:1041080050002800380040005000280040003800C7
:1041180050002800480030005000280050002800B7
:1041280050002800580020005000280060001800A7
:104138005000280068001000500028007000080097
:104148005000280078000000580020000000780087
:104158005800200008007000580020001000680077
:104168005800200018006000580020002000580067
:104178005800200028005000580020003000480057
:104188005800200038004000580020004000380047
:104198005800200048003000580020005000280037
:1041A8005800200058002000580020006000180027
:1041B8005800200068001000580020007000080017
:1041C8005800200078000000200058000800700007
:1041D80050002800000078002000580010006800F7
:1041E80050002800080070007000080000007800E7
:1041F80020005800280050005000280018006000D7
:1042080050002800200058005000280028005000C6
:1042180050002800300048002000580058002000B6
:1042280050002800380040002000580068001000A6
:104238002000580040003800200058007800000096
:104248005000280040003800280050000000780086
:104258002000580018006000280050002000580076
:104268005000280048003000500028005000280066
:104278002800500040003800700008000800700056
:104288005000280058002000500028006000180046
:104298007000080010006800500028006800100036
:1042A8005000280070000800500028006800100026
:1042B8005000280078000000580020000000780016
:1042C8005800200008007000300048000800700006
:1042D80058002000100068005800200018006000F6
:1042E80058002000200058007000080018006000E6
:1042F80030004800280050005800200030004800D6
:1043080058002000380040005800200040003800C5
:1043180058002000480030005800200050002800B5
:1043280058002000580020005800200060001800A5
:104338005800200068001000300048007800000095
:104348005800200070000800380040000000780085
:104358003000480018006000580020007800000075
:104368003800400048003000700008002000580065
:104378003800400040003800700008002800500055
:104388006000180000007800600018000800700045
:104398007000080030004800600018001000680035
:1043A8006000180018006000600018002000580025
:1043B8006000180028005000600018003000480015
:1043C8006000180038004000000078000000780005
:1043D80000007800080070000000780010006800F5
:1043E80000007800180060000000780020005800E5
:1043F80000007800280050000000780030004800D5
:1044080000007800380040000000780040003800C4
:1044180000007800480030000000780050002800B4
:1044280000007800580020000000780060001800A4
:104438000000780068001000000078007000080094
:104448000000780078000000080070000000780084
:104458000800700008007000080070001000680074
:104468000800700018006000080070002000580064
:104478000800700028005000080070003000480054
:104488000800700038004000080070004000380044
:104498000800700048003000080070005000280034
:1044A8000800700058002000080070006000180024
:1044B8000800700068001000080070007000080014
:1044C8000800700078000000100068000000780004
:1044D80010006800080070001000680010006800F4
:1044E80010006800180060001000680020005800E4
:1044F80010006800280050001000680030004800D4
:1045080010006800380040001000680040003800C3
:1045180010006800480030001000680050002800B3
:1045280010006800580020001000680060001800A3
:104538001000680068001000100068007000080093
:104548001000680078000000180060000000780083
:104558001800600008007000180060001000680073
:104568001800600018006000180060002000580063
:104578001800600028005000180060003000480053
:104588001800600038004000180060004000380043
:104598001800600048003000180060005000280033
:1045A8001800600058002000180060006000180023
:1045B8001800600068001000180060007000080013
:1045C8001800600078000000200058000000780003
:1045D80020005800080070002000580010006800F3
:1045E80020005800180060002000580020005800E3
:1045F80020005800280050002000580030004800D3
:1046080020005800380040002000580040003800C2
:1046180020005800480030002000580050002800B2
:1046280020005800580020002000580060001800A2
:104638002000580068001000200058007000080092
:104648002000580078000000280050000000780082
:104658002800500008007000280050001000680072
:104668002800500018006000280050002000580062
:104678002800500028005000280050003000480052
:104688002800500038004000280050004000380042
:104698002800500048003000280050005000280032
:1046A8002800500058002000280050006000180022
:1046B8002800500068001000280050007000080012
:1046C8002800500078000000300048000000780002
:1046D80030004800080070003000480010006800F2
:1046E80030004800180060003000480020005800E2
:1046F80030004800280050003000480030004800D2
:1047080030004800380040003000480040003800C1
:1047180030004800480030003000480050002800B1
:1047280030004800580020003000480060001800A1
:104738003000480068001000300048007000080091
:104748003000480078000000380040000000780081
:104758003800400008007000380040001000680071
:104768003800400018006000380040002000580061
:104778003800400028005000380040003000480051
:104788003800400038004000380040004000380041
:104798003800400048003000380040005000280031
:1047A8003800400058002000380040006000180021
:1047B8003800400068001000380040007000080011
:1047C8003800400078000000400038000000780001
:1047D80040003800080070004000380010006800F1
:1047E80040003800180060004000380020005800E1
:1047F80040003800280050004000380030004800D1
:1048080040003800380040004000380040003800C0
:1048180040003800480030004000380050002800B0
:1048280040003800580020004000380060001800A0
:104838004000380068001000400038007000080090
:104848004000380078000000480030000000780080
:104858004800300008007000480030001000680070
:104868004800300018006000480030002000580060
:104878004800300028005000480030003000480050
:104888004800300038004000480030004000380040
:104898004800300048003000480030005000280030
:1048A8004800300058002000480030006000180020
:1048B8004800300068001000480030007000080010
:1048C8004800300078000000500028000000780000
:1048D80050002800080070005000280010006800F0
:1048E80050002800180060005000280020005800E0
:1048F80050002800280050005000280030004800D0
:1049080050002800380040005000280040003800BF
:1049180050002800480030005000280050002800AF
:10492800500028005800200050002800600018009F
:10493800500028006800100050002800700008008F
:10494800500028007800000058002000000078007F
:10495800580020000800700058002000100068006F
:10496800580020001800600058002000200058005F
:10497800580020002800500058002000300048004F
:10498800580020003800400058002000400038003F
:10499800580020004800300058002000500028002F
:1049A800580020005800200058002000600018001F
:1049B800580020006800100058002000700008000F
:1049C80058002000780000006000180000007800FF
:1049D80060001800080070006000180010006800EF
:1049E80060001800180060006000180020005800DF
:1049F80060001800280050006000180030004800CF
:104A080060001800380040006000180040003800BE
:104A180060001800480030006000180050002800AE
:104A2800600018005800200060001800600018009E
:104A3800600018006800100060001800700008008E
:104A4800600018007800000068001000000078007E
:104A5800680010000800700068001000100068006E
:104A6800680010001800600068001000200058005E
:104A7800680010002800500068001000300048004E
:104A8800680010003800400068001000400038003E
:104A9800680010004800300068001000500028002E
:104AA800680010005800200068001000600018001E
:104AB800680010006800100068001000700008000E
:104AC80068001000780000007000080000007800FE
:104AD80070000800080070007000080010006800EE
:104AE80070000800180060007000080020005800DE
:104AF80070000800280050007000080030004800CE
:104B080070000800380040007000080040003800BD
:104B180070000800480030007000080050002800AD
:104B2800700008005800200070000800600018009D
:104B3800700008006800100070000800700008008D
:104B4800700008007800000078000000000078007D
:104B5800780000000800700078000000100068006D
:104B6800780000001800600078000000200058005D
:104B7800780000002800500078000000300048004D
:104B8800780000003800400078000000400038003D
:104B9800780000004800300078000000500028002D
:104BA800780000005800200078000000600018001D
:104BB800780000006800100078000000700008000D
:104BC80078000000780000000000000000000000ED
:104BD800ED09000800000000000000007D09000841
:104BE8000000000000000000A50C0008CDE0F1F274
:104BF800F0EEE9EAE000C1F3E4E8EBFCEDE8EA00F6
:104C0800232D302B2000686C4C00656667454647AD
:104C18000030313233343536373839414243444530
:104C2800460030313233343536373839616263649F
:044C380065660000AD
:084C3C00E90000088D2E0008BC
:044C4400C1000008A3
:104C48000400002000000000000000000000000038
:104C5800000000000000000000000000000000004C
:104C6800000000000000000000000000000000003C
:104C7800000000000000000000000000000000002C
:104C8800000000000000000000000000000000001C
:104C9800000000000000000000000000000000000C
:044CA8000000000008
:0400000508002FEDD3
:00000001FF
